{
  "contractName": "DiamondRegistry",
  "abi": [
    {
      "constant": true,
      "inputs": [],
      "name": "mediator",
      "outputs": [
        {
          "name": "",
          "type": "address"
        }
      ],
      "payable": false,
      "stateMutability": "view",
      "type": "function"
    },
    {
      "constant": true,
      "inputs": [
        {
          "name": "",
          "type": "address"
        },
        {
          "name": "",
          "type": "uint256"
        }
      ],
      "name": "owners",
      "outputs": [
        {
          "name": "id",
          "type": "uint256"
        },
        {
          "name": "diamondColor",
          "type": "string"
        },
        {
          "name": "diamondType",
          "type": "string"
        }
      ],
      "payable": false,
      "stateMutability": "view",
      "type": "function"
    },
    {
      "constant": true,
      "inputs": [],
      "name": "state",
      "outputs": [
        {
          "name": "",
          "type": "uint8"
        }
      ],
      "payable": false,
      "stateMutability": "view",
      "type": "function"
    },
    {
      "inputs": [],
      "payable": false,
      "stateMutability": "nonpayable",
      "type": "constructor"
    },
    {
      "anonymous": false,
      "inputs": [],
      "name": "Aborted",
      "type": "event"
    },
    {
      "anonymous": false,
      "inputs": [],
      "name": "ItemReceived",
      "type": "event"
    },
    {
      "constant": false,
      "inputs": [
        {
          "name": "owner",
          "type": "address"
        },
        {
          "name": "diamondColor",
          "type": "string"
        },
        {
          "name": "diamondType",
          "type": "string"
        }
      ],
      "name": "addDiamond",
      "outputs": [],
      "payable": false,
      "stateMutability": "nonpayable",
      "type": "function"
    }
  ],
  "bytecode": "0x608060405234801561001057600080fd5b5033600160006101000a81548173ffffffffffffffffffffffffffffffffffffffff021916908373ffffffffffffffffffffffffffffffffffffffff1602179055506105a4806100616000396000f300608060405260043610610062576000357c0100000000000000000000000000000000000000000000000000000000900463ffffffff1680636d0501f6146100675780639b3e2787146100be578063b2e422d9146101f7578063c19d93fb146102c6575b600080fd5b34801561007357600080fd5b5061007c6102ff565b604051808273ffffffffffffffffffffffffffffffffffffffff1673ffffffffffffffffffffffffffffffffffffffff16815260200191505060405180910390f35b3480156100ca57600080fd5b50610109600480360381019080803573ffffffffffffffffffffffffffffffffffffffff16906020019092919080359060200190929190505050610325565b604051808481526020018060200180602001838103835285818151815260200191508051906020019080838360005b83811015610153578082015181840152602081019050610138565b50505050905090810190601f1680156101805780820380516001836020036101000a031916815260200191505b50838103825284818151815260200191508051906020019080838360005b838110156101b957808201518184015260208101905061019e565b50505050905090810190601f1680156101e65780820380516001836020036101000a031916815260200191505b509550505050505060405180910390f35b34801561020357600080fd5b506102c4600480360381019080803573ffffffffffffffffffffffffffffffffffffffff169060200190929190803590602001908201803590602001908080601f0160208091040260200160405190810160405280939291908181526020018383808284378201915050505050509192919290803590602001908201803590602001908080601f016020809104026020016040519081016040528093929190818152602001838380828437820191505050505050919291929050505061049b565b005b3480156102d257600080fd5b506102db610565565b604051808260028111156102eb57fe5b60ff16815260200191505060405180910390f35b600160009054906101000a900473ffffffffffffffffffffffffffffffffffffffff1681565b60006020528160005260406000208181548110151561034057fe5b906000526020600020906003020160009150915050806000015490806001018054600181600116156101000203166002900480601f0160208091040260200160405190810160405280929190818152602001828054600181600116156101000203166002900480156103f35780601f106103c8576101008083540402835291602001916103f3565b820191906000526020600020905b8154815290600101906020018083116103d657829003601f168201915b505050505090806002018054600181600116156101000203166002900480601f0160208091040260200160405190810160405280929190818152602001828054600181600116156101000203166002900480156104915780601f1061046657610100808354040283529160200191610491565b820191906000526020600020905b81548152906001019060200180831161047457829003601f168201915b5050505050905083565b600160009054906101000a900473ffffffffffffffffffffffffffffffffffffffff1673ffffffffffffffffffffffffffffffffffffffff163373ffffffffffffffffffffffffffffffffffffffff16141515610560576040517f08c379a000000000000000000000000000000000000000000000000000000000815260040180806020018281038252601c8152602001807f4f6e6c79206d65646961746f722063616e2063616c6c20746869732e0000000081525060200191505060405180910390fd5b505050565b600160149054906101000a900460ff16815600a165627a7a7230582040f20d94ada09986f866852def2bddf5d4649e9b8c9c0bd46b2c5da0b0daf3810029",
  "source": "pragma solidity ^0.4.22;\n\ncontract DiamondRegistry {\n\n    //diamond struct\n    struct Diamond {\n      uint id;\n      string diamondColor;\n      string diamondType;\n    }\n\n    //the mapping between each owner (address) and the diamons possessed\n    mapping (address => Diamond[]) public owners;\n\n    // uint public value;\n    address public mediator;\n\n    enum State { Created, Locked, Inactive }\n    State public state;\n\n    // Set the Certification Authority as the owner of the contract\n    constructor() public {\n        mediator = msg.sender;\n    }\n\n    modifier onlyMediator() {\n      require(\n          msg.sender == mediator,\n          \"Only mediator can call this.\"\n      );\n      _;\n    }\n\n    // modifier onlyBuyer() {\n    //     require(\n    //         msg.sender == buyer,\n    //         \"Only buyer can call this.\"\n    //     );\n    //     _;\n    // }\n\n    // modifier onlySeller() {\n    //     require(\n    //         msg.sender == seller,\n    //         \"Only seller can call this.\"\n    //     );\n    //     _;\n    // }\n\n    // modifier inState(State _state) {\n    //     require(\n    //         state == _state,\n    //         \"Invalid state.\"\n    //     );\n    //     _;\n    // }\n\n    event Aborted();\n    event ItemReceived();\n\n    // Add diamond to the registry binding it to the address of the owner issuer.\n    // Only the mediator is allowed to perform the action.\n    // An unique ID is computed from the physical features of the diamond\n    // Params:\n    // - owner(address): address of the diamond owner issuing the add request\n    // - color(string): color of diamon\n    function addDiamond(address owner, string diamondColor, string diamondType) public onlyMediator {\n\n\n\n      // check if diamond is already present\n      // create the ID of diamond: ID = hash(diamondColor,diamondType)\n      // add the address to the owners list\n      // add the diamond to the diamonds list\n      // add in the register hashmap the address (if not exist) and bind the newly diamon\n\n    }\n\n\n    // function getDiamonds() view public returns (uint[]) {\n    //     return diamonds;\n    // }\n    //\n    // function countDiamonds() view public returns (uint) {\n    //     return diamonds.length;\n    // }\n\n\n    // function changeOwner(Diamond diamond, address owner) {\n    //     if (msg.sender == merchant)\n    //         diamond.owner = owner;\n    //     else throw;\n    // }\n\n\n    // /// Abort the DiamondRegistry and reclaim the ether.\n    // /// Can only be called by the seller before\n    // /// the contract is locked.\n    // function abort()\n    //     public\n    //     onlySeller\n    //     inState(State.Created)\n    // {\n    //     emit Aborted();\n    //     state = State.Inactive;\n    //     seller.transfer(address(this).balance);\n    // }\n\n    // /// Confirm the DiamondRegistry as buyer.\n    // /// Transaction has to include `2 * value` ether.\n    // /// The ether will be locked until confirmReceived\n    // /// is called.\n    // function confirmDiamondRegistry()\n    //     public\n    //     inState(State.Created)\n    //     condition(msg.value == (2 * value))\n    //     payable\n    // {\n    //     emit DiamondRegistryConfirmed();\n    //     buyer = msg.sender;\n    //     state = State.Locked;\n    // }\n\n    // /// Confirm that you (the buyer) received the item.\n    // /// This will release the locked ether.\n    // function confirmReceived()\n    //     public\n    //     onlyBuyer\n    //     inState(State.Locked)\n    // {\n    //     emit ItemReceived();\n    //     // It is important to change the state first because\n    //     // otherwise, the contracts called using `send` below\n    //     // can call in again here.\n    //     state = State.Inactive;\n    //\n    //     // NOTE: This actually allows both the buyer and the seller to\n    //     // block the refund - the withdraw pattern should be used.\n    //\n    //     buyer.transfer(value);\n    //     seller.transfer(address(this).balance);\n    // }\n}\n",
  "sourcePath": "/Users/giovanni/Documents/SdM_Assignment/solidity-experiments/contracts/DiamondRegistry.sol",
  "compiler": {
    "name": "solc",
    "version": "0.4.24+commit.e67f0147.Emscripten.clang"
  },
  "schemaVersion": "2.0.1",
  "updatedAt": "2018-10-31T16:15:33.843Z"
}