{
  "contractName": "DiamondTracker2",
  "abi": [
    {
      "constant": true,
      "inputs": [
        {
          "name": "",
          "type": "address"
        },
        {
          "name": "",
          "type": "uint256"
        }
      ],
      "name": "owners",
      "outputs": [
        {
          "name": "id",
          "type": "bytes32"
        },
        {
          "name": "origin",
          "type": "string"
        },
        {
          "name": "d_type",
          "type": "uint8"
        },
        {
          "components": [
            {
              "name": "size",
              "type": "uint256"
            }
          ],
          "name": "properties",
          "type": "tuple"
        },
        {
          "name": "diamondOwner",
          "type": "address"
        },
        {
          "name": "diamondPrice",
          "type": "uint256"
        }
      ],
      "payable": false,
      "stateMutability": "view",
      "type": "function"
    },
    {
      "constant": true,
      "inputs": [
        {
          "name": "",
          "type": "uint256"
        }
      ],
      "name": "certificate_authorities",
      "outputs": [
        {
          "name": "",
          "type": "address"
        }
      ],
      "payable": false,
      "stateMutability": "view",
      "type": "function"
    },
    {
      "constant": true,
      "inputs": [
        {
          "name": "",
          "type": "bytes32"
        },
        {
          "name": "",
          "type": "uint256"
        }
      ],
      "name": "diamondExchangeHistory",
      "outputs": [
        {
          "name": "diamond_id",
          "type": "bytes32"
        },
        {
          "name": "buyer",
          "type": "address"
        },
        {
          "name": "seller",
          "type": "address"
        },
        {
          "name": "state",
          "type": "uint8"
        }
      ],
      "payable": false,
      "stateMutability": "view",
      "type": "function"
    },
    {
      "inputs": [
        {
          "name": "_certificate_authorities",
          "type": "address[]"
        }
      ],
      "payable": false,
      "stateMutability": "nonpayable",
      "type": "constructor"
    },
    {
      "anonymous": false,
      "inputs": [],
      "name": "diamondSold",
      "type": "event"
    },
    {
      "anonymous": false,
      "inputs": [],
      "name": "diamondBuyingRequestReceived",
      "type": "event"
    },
    {
      "anonymous": false,
      "inputs": [
        {
          "indexed": false,
          "name": "message",
          "type": "string"
        }
      ],
      "name": "UnauthorizedAccessError",
      "type": "event"
    },
    {
      "anonymous": false,
      "inputs": [
        {
          "indexed": false,
          "name": "message",
          "type": "string"
        }
      ],
      "name": "RequestError",
      "type": "event"
    },
    {
      "constant": false,
      "inputs": [
        {
          "name": "_owner",
          "type": "address"
        },
        {
          "name": "_type",
          "type": "uint256"
        },
        {
          "name": "_origin",
          "type": "string"
        },
        {
          "name": "_size",
          "type": "uint256"
        },
        {
          "name": "_price",
          "type": "uint256"
        }
      ],
      "name": "register",
      "outputs": [
        {
          "name": "",
          "type": "bytes32"
        }
      ],
      "payable": false,
      "stateMutability": "nonpayable",
      "type": "function"
    },
    {
      "constant": false,
      "inputs": [
        {
          "name": "ID",
          "type": "bytes32"
        },
        {
          "name": "newOwner",
          "type": "address"
        }
      ],
      "name": "sell",
      "outputs": [],
      "payable": false,
      "stateMutability": "nonpayable",
      "type": "function"
    },
    {
      "constant": false,
      "inputs": [
        {
          "name": "diamond_id",
          "type": "bytes32"
        }
      ],
      "name": "buy",
      "outputs": [],
      "payable": true,
      "stateMutability": "payable",
      "type": "function"
    },
    {
      "constant": true,
      "inputs": [],
      "name": "getPendingBuyingRequestsSize",
      "outputs": [
        {
          "name": "",
          "type": "uint256"
        }
      ],
      "payable": false,
      "stateMutability": "view",
      "type": "function"
    },
    {
      "constant": true,
      "inputs": [
        {
          "name": "_index",
          "type": "uint256"
        }
      ],
      "name": "getPendingBuyingRequestByIndex",
      "outputs": [
        {
          "name": "",
          "type": "bytes32"
        },
        {
          "name": "",
          "type": "address"
        },
        {
          "name": "",
          "type": "uint8"
        }
      ],
      "payable": false,
      "stateMutability": "view",
      "type": "function"
    },
    {
      "constant": true,
      "inputs": [
        {
          "name": "index",
          "type": "uint256"
        }
      ],
      "name": "getDiamondByIndex",
      "outputs": [
        {
          "name": "",
          "type": "bytes32"
        },
        {
          "name": "",
          "type": "string"
        },
        {
          "name": "",
          "type": "uint8"
        },
        {
          "name": "",
          "type": "uint256"
        },
        {
          "name": "",
          "type": "address"
        },
        {
          "name": "",
          "type": "uint256"
        }
      ],
      "payable": false,
      "stateMutability": "view",
      "type": "function"
    },
    {
      "constant": true,
      "inputs": [
        {
          "name": "id",
          "type": "bytes32"
        }
      ],
      "name": "getDiamondById",
      "outputs": [
        {
          "name": "",
          "type": "bytes32"
        },
        {
          "name": "",
          "type": "string"
        },
        {
          "name": "",
          "type": "uint8"
        },
        {
          "name": "",
          "type": "uint256"
        },
        {
          "name": "",
          "type": "address"
        },
        {
          "name": "",
          "type": "uint256"
        }
      ],
      "payable": false,
      "stateMutability": "view",
      "type": "function"
    },
    {
      "constant": true,
      "inputs": [],
      "name": "getNumberOfDiamonds",
      "outputs": [
        {
          "name": "",
          "type": "uint256"
        }
      ],
      "payable": false,
      "stateMutability": "view",
      "type": "function"
    },
    {
      "constant": true,
      "inputs": [
        {
          "name": "diamond_id",
          "type": "bytes32"
        }
      ],
      "name": "getDiamondExchangeHistoryLenght",
      "outputs": [
        {
          "name": "",
          "type": "uint256"
        }
      ],
      "payable": false,
      "stateMutability": "view",
      "type": "function"
    },
    {
      "constant": true,
      "inputs": [],
      "name": "getNumberOfCA",
      "outputs": [
        {
          "name": "",
          "type": "uint256"
        }
      ],
      "payable": false,
      "stateMutability": "view",
      "type": "function"
    },
    {
      "constant": true,
      "inputs": [
        {
          "name": "owner",
          "type": "address"
        }
      ],
      "name": "getNumberOfOwnedDiamonds",
      "outputs": [
        {
          "name": "",
          "type": "uint256"
        }
      ],
      "payable": false,
      "stateMutability": "view",
      "type": "function"
    },
    {
      "constant": true,
      "inputs": [
        {
          "name": "owner",
          "type": "address"
        },
        {
          "name": "index",
          "type": "uint256"
        }
      ],
      "name": "getOwnedDiamondsByIndex",
      "outputs": [
        {
          "name": "",
          "type": "bytes32"
        },
        {
          "name": "",
          "type": "string"
        },
        {
          "name": "",
          "type": "uint8"
        },
        {
          "name": "",
          "type": "uint256"
        },
        {
          "name": "",
          "type": "address"
        },
        {
          "name": "",
          "type": "uint256"
        }
      ],
      "payable": false,
      "stateMutability": "view",
      "type": "function"
    }
  ],
  "bytecode": "0x608060405260c0604051908101604052807f307830300000000000000000000000000000000000000000000000000000000060001916815260200160206040519081016040528060008152508152602001600060018111156200005e57fe5b815260200160206040519081016040528060008152508152602001600073ffffffffffffffffffffffffffffffffffffffff168152602001600081525060008082015181600001906000191690556020820151816001019080519060200190620000ca929190620001af565b5060408201518160020160006101000a81548160ff02191690836001811115620000f057fe5b021790555060608201518160030160008201518160000155505060808201518160040160006101000a81548173ffffffffffffffffffffffffffffffffffffffff021916908373ffffffffffffffffffffffffffffffffffffffff16021790555060a0820151816005015550503480156200016a57600080fd5b506040516200392e3803806200392e833981018060405281019080805182019291905050508060069080519060200190620001a792919062000236565b505062000333565b828054600181600116156101000203166002900490600052602060002090601f016020900481019282601f10620001f257805160ff191683800117855562000223565b8280016001018555821562000223579182015b828111156200022257825182559160200191906001019062000205565b5b509050620002329190620002c5565b5090565b828054828255906000526020600020908101928215620002b2579160200282015b82811115620002b15782518260006101000a81548173ffffffffffffffffffffffffffffffffffffffff021916908373ffffffffffffffffffffffffffffffffffffffff1602179055509160200191906001019062000257565b5b509050620002c19190620002ed565b5090565b620002ea91905b80821115620002e6576000816000905550600101620002cc565b5090565b90565b6200033091905b808211156200032c57600081816101000a81549073ffffffffffffffffffffffffffffffffffffffff021916905550600101620002f4565b5090565b90565b6135eb80620003436000396000f3006080604052600436106100db576000357c0100000000000000000000000000000000000000000000000000000000900463ffffffff168063186bb1b2146100e0578063353bbf1c146101eb578063798e7d17146102805780638bcf5fac14610311578063944dfc2a146103685780639b3e2787146103b95780639c9a1061146104e45780639fd5756014610508578063bd4201d414610533578063c70b9fcf1461065e578063ca7b1edb14610689578063cc338cab14610798578063e2afd868146107c3578063fb39724914610830578063fdd1339814610902575b600080fd5b3480156100ec57600080fd5b5061010b60048036038101908080359060200190929190505050610947565b6040518087600019166000191681526020018060200186600181111561012d57fe5b60ff1681526020018581526020018473ffffffffffffffffffffffffffffffffffffffff1673ffffffffffffffffffffffffffffffffffffffff168152602001838152602001828103825287818151815260200191508051906020019080838360005b838110156101ab578082015181840152602081019050610190565b50505050905090810190601f1680156101d85780820380516001836020036101000a031916815260200191505b5097505050505050505060405180910390f35b3480156101f757600080fd5b50610262600480360381019080803573ffffffffffffffffffffffffffffffffffffffff169060200190929190803590602001909291908035906020019082018035906020019190919293919293908035906020019092919080359060200190929190505050610c05565b60405180826000191660001916815260200191505060405180910390f35b34801561028c57600080fd5b506102ab60048036038101908080359060200190929190505050610f9b565b6040518084600019166000191681526020018373ffffffffffffffffffffffffffffffffffffffff1673ffffffffffffffffffffffffffffffffffffffff1681526020018260038111156102fb57fe5b60ff168152602001935050505060405180910390f35b34801561031d57600080fd5b50610352600480360381019080803573ffffffffffffffffffffffffffffffffffffffff169060200190929190505050611187565b6040518082815260200191505060405180910390f35b34801561037457600080fd5b506103b76004803603810190808035600019169060200190929190803573ffffffffffffffffffffffffffffffffffffffff1690602001909291905050506111d3565b005b3480156103c557600080fd5b50610404600480360381019080803573ffffffffffffffffffffffffffffffffffffffff16906020019092919080359060200190929190505050611b1e565b6040518087600019166000191681526020018060200186600181111561042657fe5b60ff1681526020018581526020018473ffffffffffffffffffffffffffffffffffffffff1673ffffffffffffffffffffffffffffffffffffffff168152602001838152602001828103825287818151815260200191508051906020019080838360005b838110156104a4578082015181840152602081019050610489565b50505050905090810190601f1680156104d15780820380516001836020036101000a031916815260200191505b5097505050505050505060405180910390f35b6105066004803603810190808035600019169060200190929190505050611c50565b005b34801561051457600080fd5b5061051d612055565b6040518082815260200191505060405180910390f35b34801561053f57600080fd5b5061057e600480360381019080803573ffffffffffffffffffffffffffffffffffffffff1690602001909291908035906020019092919050505061209f565b604051808760001916600019168152602001806020018660018111156105a057fe5b60ff1681526020018581526020018473ffffffffffffffffffffffffffffffffffffffff1673ffffffffffffffffffffffffffffffffffffffff168152602001838152602001828103825287818151815260200191508051906020019080838360005b8381101561061e578082015181840152602081019050610603565b50505050905090810190601f16801561064b5780820380516001836020036101000a031916815260200191505b5097505050505050505060405180910390f35b34801561066a57600080fd5b506106736123be565b6040518082815260200191505060405180910390f35b34801561069557600080fd5b506106b860048036038101908080356000191690602001909291905050506123cb565b604051808760001916600019168152602001806020018660018111156106da57fe5b60ff1681526020018581526020018473ffffffffffffffffffffffffffffffffffffffff1673ffffffffffffffffffffffffffffffffffffffff168152602001838152602001828103825287818151815260200191508051906020019080838360005b8381101561075857808201518184015260208101905061073d565b50505050905090810190601f1680156107855780820380516001836020036101000a031916815260200191505b5097505050505050505060405180910390f35b3480156107a457600080fd5b506107ad6126cc565b6040518082815260200191505060405180910390f35b3480156107cf57600080fd5b506107ee600480360381019080803590602001909291905050506126d9565b604051808273ffffffffffffffffffffffffffffffffffffffff1673ffffffffffffffffffffffffffffffffffffffff16815260200191505060405180910390f35b34801561083c57600080fd5b50610869600480360381019080803560001916906020019092919080359060200190929190505050612717565b6040518085600019166000191681526020018473ffffffffffffffffffffffffffffffffffffffff1673ffffffffffffffffffffffffffffffffffffffff1681526020018373ffffffffffffffffffffffffffffffffffffffff1673ffffffffffffffffffffffffffffffffffffffff1681526020018260038111156108eb57fe5b60ff16815260200194505050505060405180910390f35b34801561090e57600080fd5b5061093160048036038101908080356000191690602001909291905050506127b0565b6040518082815260200191505060405180910390f35b6000606060008060008060078054905087101515610a5e5760008001546000600101600060020160009054906101000a900460ff16600060030160000154600060040160009054906101000a900473ffffffffffffffffffffffffffffffffffffffff16600060050154848054600181600116156101000203166002900480601f016020809104026020016040519081016040528092919081815260200182805460018160011615610100020316600290048015610a465780601f10610a1b57610100808354040283529160200191610a46565b820191906000526020600020905b815481529060010190602001808311610a2957829003601f168201915b50505050509450955095509550955095509550610bfc565b600787815481101515610a6d57fe5b906000526020600020906006020160000154600788815481101515610a8e57fe5b9060005260206000209060060201600101600789815481101515610aae57fe5b906000526020600020906006020160020160009054906101000a900460ff1660078a815481101515610adc57fe5b90600052602060002090600602016003016000015460078b815481101515610b0057fe5b906000526020600020906006020160040160009054906101000a900473ffffffffffffffffffffffffffffffffffffffff1660078c815481101515610b4157fe5b906000526020600020906006020160050154848054600181600116156101000203166002900480601f016020809104026020016040519081016040528092919081815260200182805460018160011615610100020316600290048015610be85780601f10610bbd57610100808354040283529160200191610be8565b820191906000526020600020905b815481529060010190602001808311610bcb57829003601f168201915b505050505094509550955095509550955095505b91939550919395565b6000610c0f613373565b610c18336127d8565b1515610cb8577f1ef837382c56095747ca92c9f33a4d97ffd13f0d760855f67dda7f27867135d86040518080602001828103825260268152602001807f596f7520617265206e6f7420616c6c6f77656420746f2063616c6c207265676981526020017f737465722829000000000000000000000000000000000000000000000000000081525060400191505060405180910390a160006001029150610f90565b6000871480610cc75750600187145b1515610d67577f2aedcdb886f60b8254795dfa547008e0a7d39d045e4d83588dba059223fb82316040518080602001828103825260278152602001807f54797065206d75737420626520302853796e74686574696329206f722031284e81526020017f61747572616c290000000000000000000000000000000000000000000000000081525060400191505060405180910390a160006001029150610f90565b6000871415610d9857600081604001906001811115610d8257fe5b90816001811115610d8f57fe5b81525050610dc6565b6001871415610dc557600181604001906001811115610db357fe5b90816001811115610dc057fe5b815250505b5b85858080601f01602080910402602001604051908101604052809392919081815260200183838082843782019150505050505081602001819052508381606001516000018181525050828160a00181815250506002848888886040516020018085815260200184815260200183838082843782019150509450505050506040516020818303038152906040526040518082805190602001908083835b602083101515610e875780518252602082019150602081019050602083039250610e62565b6001836020036101000a0380198251168184511680821785525050505050509050019150506020604051808303816000865af1158015610ecb573d6000803e3d6000fd5b5050506040513d6020811015610ee057600080fd5b810190808051906020019092919050505081600001906000191690816000191681525050610f0e818961287b565b1515610f88577f2aedcdb886f60b8254795dfa547008e0a7d39d045e4d83588dba059223fb82316040518080602001828103825260168152602001807f4469616d6f6e6420616c7265616479206578697374730000000000000000000081525060200191505060405180910390a160006001029150610f90565b806000015191505b509695505050505050565b60008060006060600860003373ffffffffffffffffffffffffffffffffffffffff1673ffffffffffffffffffffffffffffffffffffffff168152602001908152602001600020805480602002602001604051908101604052809291908181526020016000905b8282101561111f5783829060005260206000209060030201608060405190810160405290816000820154600019166000191681526020016001820160009054906101000a900473ffffffffffffffffffffffffffffffffffffffff1673ffffffffffffffffffffffffffffffffffffffff1673ffffffffffffffffffffffffffffffffffffffff1681526020016002820160009054906101000a900473ffffffffffffffffffffffffffffffffffffffff1673ffffffffffffffffffffffffffffffffffffffff1673ffffffffffffffffffffffffffffffffffffffff1681526020016002820160149054906101000a900460ff16600381111561110157fe5b600381111561110c57fe5b8152505081526020019060010190611001565b505050509050808581518110151561113357fe5b9060200190602002015160000151818681518110151561114f57fe5b9060200190602002015160200151828781518110151561116b57fe5b9060200190602002015160600151935093509350509193909250565b6000600a60008373ffffffffffffffffffffffffffffffffffffffff1673ffffffffffffffffffffffffffffffffffffffff168152602001908152602001600020805490509050919050565b6111db613373565b60008060008060006111ec886123cb565b849450905050896000018a6020018b6040018c606001516000018481525084600181111561121657fe5b600181111561122157fe5b8152508490528460001916600019168152505050505061124086612e61565b156112b2577f2aedcdb886f60b8254795dfa547008e0a7d39d045e4d83588dba059223fb82316040518080602001828103825260168152602001807f4469616d6f6e6420646f6573206e6f742065786973740000000000000000000081525060200191505060405180910390a1611b14565b6112bc3387612fe1565b1515611355577f1ef837382c56095747ca92c9f33a4d97ffd13f0d760855f67dda7f27867135d860405180806020018281038252602e8152602001807f596f7520617265206e6f7420746865206f776e6572206f66207468652073706581526020017f636966696564206469616d6f6e6400000000000000000000000000000000000081525060400191505060405180910390a1611b14565b61136033888a61308e565b15156113f9577f2aedcdb886f60b8254795dfa547008e0a7d39d045e4d83588dba059223fb82316040518080602001828103825260278152602001807f5265717565737420666f722074686174206469616d6f6e6420646f6573206e6f81526020017f742065786973740000000000000000000000000000000000000000000000000081525060400191505060405180910390a1611b14565b600860003373ffffffffffffffffffffffffffffffffffffffff1673ffffffffffffffffffffffffffffffffffffffff1681526020019081526020016000209450600093505b8480549050841015611ae757856000015160001916858581548110151561146257fe5b906000526020600020906003020160000154600019161415611ada578673ffffffffffffffffffffffffffffffffffffffff1685858154811015156114a357fe5b906000526020600020906003020160010160009054906101000a900473ffffffffffffffffffffffffffffffffffffffff1673ffffffffffffffffffffffffffffffffffffffff161415611a9757600a60003373ffffffffffffffffffffffffffffffffffffffff1673ffffffffffffffffffffffffffffffffffffffff1681526020019081526020016000209250600091505b828054905082101561168957856000015160001916600a60003373ffffffffffffffffffffffffffffffffffffffff1673ffffffffffffffffffffffffffffffffffffffff1681526020019081526020016000208381548110151561159857fe5b90600052602060002090600602016000015460001916141561167c57600a60003373ffffffffffffffffffffffffffffffffffffffff1673ffffffffffffffffffffffffffffffffffffffff1681526020019081526020016000208281548110151561160057fe5b906000526020600020906006020160008082016000905560018201600061162791906133d4565b6002820160006101000a81549060ff02191690556003820160008082016000905550506004820160006101000a81549073ffffffffffffffffffffffffffffffffffffffff0219169055600582016000905550505b8180600101925050611537565b600090505b6007805490508110156118b9578560000151600019166007828154811015156116b357fe5b9060005260206000209060060201600001546000191614156118ac57866007828154811015156116df57fe5b906000526020600020906006020160040160006101000a81548173ffffffffffffffffffffffffffffffffffffffff021916908373ffffffffffffffffffffffffffffffffffffffff160217905550600a60008873ffffffffffffffffffffffffffffffffffffffff1673ffffffffffffffffffffffffffffffffffffffff16815260200190815260200160002060078281548110151561177c57fe5b90600052602060002090600602019080600181540180825580915050906001820390600052602060002090600602016000909192909190915060008201548160000190600019169055600182018160010190805460018160011615610100020316600290046117ec92919061341c565b506002820160009054906101000a900460ff168160020160006101000a81548160ff0219169083600181111561181e57fe5b021790555060038201816003016000820154816000015550506004820160009054906101000a900473ffffffffffffffffffffffffffffffffffffffff168160040160006101000a81548173ffffffffffffffffffffffffffffffffffffffff021916908373ffffffffffffffffffffffffffffffffffffffff160217905550600582015481600501555050505b808060010191505061168e565b600385858154811015156118c957fe5b906000526020600020906003020160020160146101000a81548160ff021916908360038111156118f557fe5b021790555060096000868681548110151561190c57fe5b90600052602060002090600302016000015460001916600019168152602001908152602001600020858581548110151561194257fe5b906000526020600020906003020190806001815401808255809150509060018203906000526020600020906003020160009091929091909150600082015481600001906000191690556001820160009054906101000a900473ffffffffffffffffffffffffffffffffffffffff168160010160006101000a81548173ffffffffffffffffffffffffffffffffffffffff021916908373ffffffffffffffffffffffffffffffffffffffff1602179055506002820160009054906101000a900473ffffffffffffffffffffffffffffffffffffffff168160020160006101000a81548173ffffffffffffffffffffffffffffffffffffffff021916908373ffffffffffffffffffffffffffffffffffffffff1602179055506002820160149054906101000a900460ff168160020160146101000a81548160ff02191690836003811115611a8a57fe5b0217905550505050611ad9565b60028585815481101515611aa757fe5b906000526020600020906003020160020160146101000a81548160ff02191690836003811115611ad357fe5b02179055505b5b838060010194505061143f565b7f85034d0e953e0f626a9a27a2f0a970196df012c636670e037b8cd5488d75ea8e60405160405180910390a15b5050505050505050565b600a60205281600052604060002081815481101515611b3957fe5b906000526020600020906006020160009150915050806000015490806001018054600181600116156101000203166002900480601f016020809104026020016040519081016040528092919081815260200182805460018160011615610100020316600290048015611bec5780601f10611bc157610100808354040283529160200191611bec565b820191906000526020600020905b815481529060010190602001808311611bcf57829003601f168201915b5050505050908060020160009054906101000a900460ff16908060030160206040519081016040529081600082015481525050908060040160009054906101000a900473ffffffffffffffffffffffffffffffffffffffff16908060050154905086565b60006060600080600080611c62613373565b611c6a6134a3565b611c73896123cb565b809850819950829a50839b50849c50859d5050505050505060c06040519081016040528089600019168152602001888152602001876001811115611cb357fe5b81526020016020604051908101604052808881525081526020018573ffffffffffffffffffffffffffffffffffffffff168152602001848152509150611cf882612e61565b15611d90577f2aedcdb886f60b8254795dfa547008e0a7d39d045e4d83588dba059223fb82316040518080602001828103825260278152602001807f4d757374207265717565737420746f2062757920616e206578697374696e672081526020017f6469616d6f6e640000000000000000000000000000000000000000000000000081525060400191505060405180910390a161204a565b3373ffffffffffffffffffffffffffffffffffffffff16826080015173ffffffffffffffffffffffffffffffffffffffff161415611e35577f2aedcdb886f60b8254795dfa547008e0a7d39d045e4d83588dba059223fb82316040518080602001828103825260208152602001807f53656e64657220616c7265616479206f776e732074686973206469616d6f6e6481525060200191505060405180910390a161204a565b81600001518160000190600019169081600019168152505033816020019073ffffffffffffffffffffffffffffffffffffffff16908173ffffffffffffffffffffffffffffffffffffffff16815250508160800151816040019073ffffffffffffffffffffffffffffffffffffffff16908173ffffffffffffffffffffffffffffffffffffffff1681525050600081606001906003811115611ed357fe5b90816003811115611ee057fe5b8152505060086000836080015173ffffffffffffffffffffffffffffffffffffffff1673ffffffffffffffffffffffffffffffffffffffff16815260200190815260200160002081908060018154018082558091505090600182039060005260206000209060030201600090919290919091506000820151816000019060001916905560208201518160010160006101000a81548173ffffffffffffffffffffffffffffffffffffffff021916908373ffffffffffffffffffffffffffffffffffffffff16021790555060408201518160020160006101000a81548173ffffffffffffffffffffffffffffffffffffffff021916908373ffffffffffffffffffffffffffffffffffffffff16021790555060608201518160020160146101000a81548160ff0219169083600381111561201557fe5b02179055505050507f845971218661c80b2aafa31bbbb42bb8ce242e7427ac40d9c45796159672062660405160405180910390a15b505050505050505050565b6000600860003373ffffffffffffffffffffffffffffffffffffffff1673ffffffffffffffffffffffffffffffffffffffff16815260200190815260200160002080549050905090565b60006060600080600080600a60008973ffffffffffffffffffffffffffffffffffffffff1673ffffffffffffffffffffffffffffffffffffffff168152602001908152602001600020878154811015156120f557fe5b906000526020600020906006020160000154600a60008a73ffffffffffffffffffffffffffffffffffffffff1673ffffffffffffffffffffffffffffffffffffffff1681526020019081526020016000208881548110151561215357fe5b9060005260206000209060060201600101600a60008b73ffffffffffffffffffffffffffffffffffffffff1673ffffffffffffffffffffffffffffffffffffffff168152602001908152602001600020898154811015156121b057fe5b906000526020600020906006020160020160009054906101000a900460ff16600a60008c73ffffffffffffffffffffffffffffffffffffffff1673ffffffffffffffffffffffffffffffffffffffff1681526020019081526020016000208a81548110151561221b57fe5b906000526020600020906006020160030160000154600a60008d73ffffffffffffffffffffffffffffffffffffffff1673ffffffffffffffffffffffffffffffffffffffff1681526020019081526020016000208b81548110151561227c57fe5b906000526020600020906006020160040160009054906101000a900473ffffffffffffffffffffffffffffffffffffffff16600a60008e73ffffffffffffffffffffffffffffffffffffffff1673ffffffffffffffffffffffffffffffffffffffff1681526020019081526020016000208c8154811015156122fa57fe5b906000526020600020906006020160050154848054600181600116156101000203166002900480601f0160208091040260200160405190810160405280929190818152602001828054600181600116156101000203166002900480156123a15780601f10612376576101008083540402835291602001916123a1565b820191906000526020600020905b81548152906001019060200180831161238457829003601f168201915b505050505094509550955095509550955095509295509295509295565b6000600780549050905090565b6000606060008060008060008090505b6007805490508110156125c75787600019166007828154811015156123fc57fe5b9060005260206000209060060201600001546000191614156125ba5760078181548110151561242757fe5b90600052602060002090600602016000015460078281548110151561244857fe5b906000526020600020906006020160010160078381548110151561246857fe5b906000526020600020906006020160020160009054906101000a900460ff1660078481548110151561249657fe5b9060005260206000209060060201600301600001546007858154811015156124ba57fe5b906000526020600020906006020160040160009054906101000a900473ffffffffffffffffffffffffffffffffffffffff166007868154811015156124fb57fe5b906000526020600020906006020160050154848054600181600116156101000203166002900480601f0160208091040260200160405190810160405280929190818152602001828054600181600116156101000203166002900480156125a25780601f10612577576101008083540402835291602001916125a2565b820191906000526020600020905b81548152906001019060200180831161258557829003601f168201915b505050505094509650965096509650965096506126c2565b80806001019150506123db565b60008001546000600101600060020160009054906101000a900460ff16600060030160000154600060040160009054906101000a900473ffffffffffffffffffffffffffffffffffffffff16600060050154848054600181600116156101000203166002900480601f0160208091040260200160405190810160405280929190818152602001828054600181600116156101000203166002900480156126ae5780601f10612683576101008083540402835291602001916126ae565b820191906000526020600020905b81548152906001019060200180831161269157829003601f168201915b505050505094509650965096509650965096505b5091939550919395565b6000600680549050905090565b6006818154811015156126e857fe5b906000526020600020016000915054906101000a900473ffffffffffffffffffffffffffffffffffffffff1681565b60096020528160005260406000208181548110151561273257fe5b9060005260206000209060030201600091509150508060000154908060010160009054906101000a900473ffffffffffffffffffffffffffffffffffffffff16908060020160009054906101000a900473ffffffffffffffffffffffffffffffffffffffff16908060020160149054906101000a900460ff16905084565b6000600960008360001916600019168152602001908152602001600020805490509050919050565b600080600090505b600680549050811015612870578273ffffffffffffffffffffffffffffffffffffffff1660068281548110151561281357fe5b9060005260206000200160009054906101000a900473ffffffffffffffffffffffffffffffffffffffff1673ffffffffffffffffffffffffffffffffffffffff1614156128635760019150612875565b80806001019150506127e0565b600091505b50919050565b6000806128866134a3565b600091505b600780549050821015612a4557612a2a856007848154811015156128ab57fe5b906000526020600020906006020160c06040519081016040529081600082015460001916600019168152602001600182018054600181600116156101000203166002900480601f0160208091040260200160405190810160405280929190818152602001828054600181600116156101000203166002900480156129705780601f1061294557610100808354040283529160200191612970565b820191906000526020600020905b81548152906001019060200180831161295357829003601f168201915b505050505081526020016002820160009054906101000a900460ff16600181111561299757fe5b60018111156129a257fe5b8152602001600382016020604051908101604052908160008201548152505081526020016004820160009054906101000a900473ffffffffffffffffffffffffffffffffffffffff1673ffffffffffffffffffffffffffffffffffffffff1673ffffffffffffffffffffffffffffffffffffffff1681526020016005820154815250506131b0565b15612a385760009250612e59565b818060010192505061288b565b83856080019073ffffffffffffffffffffffffffffffffffffffff16908173ffffffffffffffffffffffffffffffffffffffff168152505060078590806001815401808255809150509060018203906000526020600020906006020160009091929091909150600082015181600001906000191690556020820151816001019080519060200190612ad7929190613506565b5060408201518160020160006101000a81548160ff02191690836001811115612afc57fe5b021790555060608201518160030160008201518160000155505060808201518160040160006101000a81548173ffffffffffffffffffffffffffffffffffffffff021916908373ffffffffffffffffffffffffffffffffffffffff16021790555060a08201518160050155505050600a60008573ffffffffffffffffffffffffffffffffffffffff1673ffffffffffffffffffffffffffffffffffffffff1681526020019081526020016000208590806001815401808255809150509060018203906000526020600020906006020160009091929091909150600082015181600001906000191690556020820151816001019080519060200190612c01929190613506565b5060408201518160020160006101000a81548160ff02191690836001811115612c2657fe5b021790555060608201518160030160008201518160000155505060808201518160040160006101000a81548173ffffffffffffffffffffffffffffffffffffffff021916908373ffffffffffffffffffffffffffffffffffffffff16021790555060a0820151816005015550505084600001518160000190600019169081600019168152505083816020019073ffffffffffffffffffffffffffffffffffffffff16908173ffffffffffffffffffffffffffffffffffffffff168152505083816040019073ffffffffffffffffffffffffffffffffffffffff16908173ffffffffffffffffffffffffffffffffffffffff1681525050600381606001906003811115612d2e57fe5b90816003811115612d3b57fe5b815250506009600086600001516000191660001916815260200190815260200160002081908060018154018082558091505090600182039060005260206000209060030201600090919290919091506000820151816000019060001916905560208201518160010160006101000a81548173ffffffffffffffffffffffffffffffffffffffff021916908373ffffffffffffffffffffffffffffffffffffffff16021790555060408201518160020160006101000a81548173ffffffffffffffffffffffffffffffffffffffff021916908373ffffffffffffffffffffffffffffffffffffffff16021790555060608201518160020160146101000a81548160ff02191690836003811115612e4c57fe5b0217905550505050600192505b505092915050565b6000612fda82600060c06040519081016040529081600082015460001916600019168152602001600182018054600181600116156101000203166002900480601f016020809104026020016040519081016040528092919081815260200182805460018160011615610100020316600290048015612f205780601f10612ef557610100808354040283529160200191612f20565b820191906000526020600020905b815481529060010190602001808311612f0357829003601f168201915b505050505081526020016002820160009054906101000a900460ff166001811115612f4757fe5b6001811115612f5257fe5b8152602001600382016020604051908101604052908160008201548152505081526020016004820160009054906101000a900473ffffffffffffffffffffffffffffffffffffffff1673ffffffffffffffffffffffffffffffffffffffff1673ffffffffffffffffffffffffffffffffffffffff1681526020016005820154815250506131b0565b9050919050565b6000806000600a60008673ffffffffffffffffffffffffffffffffffffffff1673ffffffffffffffffffffffffffffffffffffffff1681526020019081526020016000209150600090505b818054905081101561308157836000015160001916828281548110151561304f57fe5b9060005260206000209060060201600001546000191614156130745760019250613086565b808060010191505061302c565b600092505b505092915050565b6000806000600860008773ffffffffffffffffffffffffffffffffffffffff1673ffffffffffffffffffffffffffffffffffffffff1681526020019081526020016000209150600090505b81805490508110156131a657836000191682828154811015156130f857fe5b906000526020600020906003020160000154600019161415613199578473ffffffffffffffffffffffffffffffffffffffff16828281548110151561313957fe5b906000526020600020906003020160010160009054906101000a900473ffffffffffffffffffffffffffffffffffffffff1673ffffffffffffffffffffffffffffffffffffffff16141561319057600192506131a7565b600092506131a7565b80806001019150506130d9565b5b50509392505050565b60006131bb82613299565b6040518082805190602001908083835b6020831015156131f057805182526020820191506020810190506020830392506131cb565b6001836020036101000a03801982511681845116808217855250505050505090500191505060405180910390206000191661322a84613299565b6040518082805190602001908083835b60208310151561325f578051825260208201915060208101905060208303925061323a565b6001836020036101000a03801982511681845116808217855250505050505090500191505060405180910390206000191614905092915050565b606081600001518260200151836040015184606001516000015160405160200180856000191660001916815260200184805190602001908083835b6020831015156132f957805182526020820191506020810190506020830392506132d4565b6001836020036101000a03801982511681845116808217855250505050505090500183600181111561332757fe5b60ff167f01000000000000000000000000000000000000000000000000000000000000000281526001018281526020019450505050506040516020818303038152906040529050919050565b60c06040519081016040528060008019168152602001606081526020016000600181111561339d57fe5b81526020016133aa613586565b8152602001600073ffffffffffffffffffffffffffffffffffffffff168152602001600081525090565b50805460018160011615610100020316600290046000825580601f106133fa5750613419565b601f016020900490600052602060002090810190613418919061359a565b5b50565b828054600181600116156101000203166002900490600052602060002090601f016020900481019282601f106134555780548555613492565b8280016001018555821561349257600052602060002091601f016020900482015b82811115613491578254825591600101919060010190613476565b5b50905061349f919061359a565b5090565b60806040519081016040528060008019168152602001600073ffffffffffffffffffffffffffffffffffffffff168152602001600073ffffffffffffffffffffffffffffffffffffffff1681526020016000600381111561350057fe5b81525090565b828054600181600116156101000203166002900490600052602060002090601f016020900481019282601f1061354757805160ff1916838001178555613575565b82800160010185558215613575579182015b82811115613574578251825591602001919060010190613559565b5b509050613582919061359a565b5090565b602060405190810160405280600081525090565b6135bc91905b808211156135b85760008160009055506001016135a0565b5090565b905600a165627a7a723058202d4486fa6be0f412b316ff1b46ca57d4a35cba94040c572f60c5ada65aec99890029",
  "source": "pragma solidity ^0.4.22;\n\ncontract DiamondTracker2 {\n\n    struct Diamond {\n        bytes32 id;\n        string origin;\n        DiamondType d_type;\n        DiamondProperties properties;\n        address diamondOwner;\n        uint diamondPrice;\n    }\n\n    Diamond NULL_DIAMOND = Diamond({\n        id: \"0x00\",\n        origin: \"\",\n        d_type: DiamondType.Synthetic,\n        properties: DiamondProperties(0),\n        diamondOwner: 0x00,\n        diamondPrice: 0\n    });\n    bytes32 constant NULL_BYTES = 0x00;\n\n    //For simplicity we narrowed down the number of properties\n    struct DiamondProperties {\n        uint size;\n    }\n\n    struct DiamondExchange {\n        bytes32 diamond_id;\n        address buyer;\n        address seller;\n        // uint value; //In ether\n        ExchangeState state;\n    }\n\n    address[] public certificate_authorities;\n\n    //list of the diamonds tracked in the ledger\n    Diamond[] diamondsList;\n\n    //enums\n    enum ExchangeState { Pending, Approved, Rejected, Finished}\n    enum DiamondType { Synthetic, Natural }\n\n    //mappings\n    mapping (address => DiamondExchange[]) diamondExchangeRequests;\n    mapping (bytes32 => DiamondExchange[]) public diamondExchangeHistory;\n    mapping (address => Diamond[]) public owners; //the mapping between each owner (address) and the diamons possessed\n\n    //events\n    event diamondSold();\n    event diamondBuyingRequestReceived();\n    event UnauthorizedAccessError(\n        string message\n    );\n    event RequestError(\n        string message\n    );\n\n    constructor(address[] _certificate_authorities) public {\n        certificate_authorities = _certificate_authorities;\n    }\n\n    function register(address _owner, uint _type, string _origin, uint _size, uint _price) external returns (bytes32) {\n        if(!isCA(msg.sender)) {\n            emit UnauthorizedAccessError(\"You are not allowed to call register()\");\n            return NULL_BYTES;\n        }\n        if(!(_type == 0 || _type == 1)) {\n            emit RequestError(\"Type must be 0(Synthetic) or 1(Natural)\"); //Type 0 = Synthetic, Type 1 = Natural\n            return NULL_BYTES;\n        }\n\n        Diamond memory d;\n        if(_type == 0) {\n            d.d_type = DiamondType.Synthetic;\n        } else if (_type == 1) {\n            d.d_type = DiamondType.Natural;\n        }\n        d.origin = _origin;\n        d.properties.size = _size;\n        d.diamondPrice = _price;\n\n        d.id = sha256(abi.encodePacked(_size, _type, _origin)); //creation of the unique ID\n\n        if(!addDiamond(d, _owner)) {\n            emit RequestError(\"Diamond already exists\");\n            return NULL_BYTES;\n        }\n\n        return d.id;\n    }\n\n    function sell(bytes32 ID, address newOwner) external {\n        Diamond memory sellingDiamond;\n        (\n            sellingDiamond.id,\n            sellingDiamond.origin,\n            sellingDiamond.d_type,\n            sellingDiamond.properties.size,\n             ,//discarded sellingDiamond.diamondOwner\n             //discarded sellingDiamond.diamondValue\n        ) = getDiamondById(ID);\n        if(isNull(sellingDiamond)) {\n            emit RequestError(\"Diamond does not exist\");\n            return;\n        }\n        if(!isOwner(msg.sender, sellingDiamond)) {\n            emit UnauthorizedAccessError(\"You are not the owner of the specified diamond\");\n            return;\n        }\n        if(!requestExists(msg.sender, newOwner, ID)) {\n            emit RequestError(\"Request for that diamond does not exist\");\n            return;\n        }\n\n        //get the buy requests of the msg.sender\n        DiamondExchange[] storage exchangesRequests = diamondExchangeRequests[msg.sender];\n        for(uint k = 0; k < exchangesRequests.length; k++) {\n            // if a request for the diamond_id is found\n            if (exchangesRequests[k].diamond_id == sellingDiamond.id){\n                // if that request is related to the person whom received the diamond\n                if (exchangesRequests[k].buyer == newOwner){\n                    Diamond[] storage ownedDiamonds = owners[msg.sender];\n                    // Delete old ownership\n                    for(uint i = 0; i < ownedDiamonds.length; i++) {\n                        if(owners[msg.sender][i].id == sellingDiamond.id){\n                            delete owners[msg.sender][i];\n                        }\n                    }\n                    // Give the diamond ownership to the new owner\n                    for(uint j = 0; j < diamondsList.length; j++) {\n                        if (diamondsList[j].id == sellingDiamond.id){\n                            diamondsList[j].diamondOwner = newOwner;\n                            owners[newOwner].push(diamondsList[j]);\n                        }\n                    }\n                    exchangesRequests[k].state = ExchangeState.Finished;\n                    //update the buying history of the Diamond\n                    diamondExchangeHistory[exchangesRequests[k].diamond_id].push(exchangesRequests[k]);\n                } else {\n                    // otherwise set it to rejected\n                    exchangesRequests[k].state = ExchangeState.Rejected;\n                }\n            }\n        }\n        emit diamondSold();\n    }\n\n    function buy(bytes32 diamond_id) external payable {\n        bytes32 id;\n        string memory origin;\n        DiamondType d_type;\n        uint size;\n        address diamondOwner;\n        uint diamondPrice;\n        (id, origin, d_type, size, diamondOwner, diamondPrice) = getDiamondById(diamond_id);\n\n        Diamond memory sellingDiamond = Diamond({\n            id: id,\n            origin: origin,\n            d_type: d_type,\n            properties: DiamondProperties(size),\n            diamondOwner: diamondOwner,\n            diamondPrice: diamondPrice\n        });\n\n        if(isNull(sellingDiamond)) {\n            emit RequestError(\"Must request to buy an existing diamond\");\n            return;\n        }\n        if(sellingDiamond.diamondOwner == msg.sender) {\n            emit RequestError(\"Sender already owns this diamond\");\n            return;\n        }\n\n        DiamondExchange memory exchange; //This memory exchange will be converted to storage once pushed into the array\n        exchange.diamond_id = sellingDiamond.id;\n        exchange.buyer = msg.sender;\n        exchange.seller = sellingDiamond.diamondOwner;\n        exchange.state = ExchangeState.Pending;\n\n        diamondExchangeRequests[sellingDiamond.diamondOwner].push(exchange);\n\n        emit diamondBuyingRequestReceived();\n    }\n\n    function getPendingBuyingRequestsSize() external view returns (uint) {\n        return diamondExchangeRequests[msg.sender].length;\n    }\n\n    function getPendingBuyingRequestByIndex(uint _index) external view returns (bytes32, address, ExchangeState) {\n        DiamondExchange[] memory exchangesRequests = diamondExchangeRequests[msg.sender];\n        return(\n            exchangesRequests[_index].diamond_id,\n            exchangesRequests[_index].buyer,\n            exchangesRequests[_index].state\n            );\n    }\n\n    function getDiamondByIndex(uint index) public view returns (bytes32, string, DiamondType, uint, address, uint) {\n        if(index >= diamondsList.length) { //Assuming no diamonds are deleted from the system\n            return (\n                NULL_DIAMOND.id,\n                NULL_DIAMOND.origin,\n                NULL_DIAMOND.d_type,\n                NULL_DIAMOND.properties.size,\n                NULL_DIAMOND.diamondOwner,\n                NULL_DIAMOND.diamondPrice\n            );\n        } else {\n            return (\n                diamondsList[index].id,\n                diamondsList[index].origin,\n                diamondsList[index].d_type,\n                diamondsList[index].properties.size,\n                diamondsList[index].diamondOwner,\n                diamondsList[index].diamondPrice\n            );\n        }\n    }\n\n    function getDiamondById(bytes32 id) public view returns (bytes32, string, DiamondType, uint, address, uint) {\n        for(uint i = 0; i < diamondsList.length; i++) {\n            if(diamondsList[i].id == id){\n                return (\n                  diamondsList[i].id,\n                  diamondsList[i].origin,\n                  diamondsList[i].d_type,\n                  diamondsList[i].properties.size,\n                  diamondsList[i].diamondOwner,\n                  diamondsList[i].diamondPrice\n                );\n            }\n        }\n        return (\n            NULL_DIAMOND.id,\n            NULL_DIAMOND.origin,\n            NULL_DIAMOND.d_type,\n            NULL_DIAMOND.properties.size,\n            NULL_DIAMOND.diamondOwner,\n            NULL_DIAMOND.diamondPrice\n        );\n    }\n\n    function getNumberOfDiamonds() external view returns (uint) {\n        return diamondsList.length;\n    }\n\n    function requestExists(address owner, address buyer, bytes32 diamond_id) internal view returns (bool) {\n        DiamondExchange[] storage exchangesRequests = diamondExchangeRequests[owner];\n        for(uint k = 0; k < exchangesRequests.length; k++) {\n            // Diamond was requested\n            if (exchangesRequests[k].diamond_id == diamond_id){\n                // Requested from that buyer\n                if (exchangesRequests[k].buyer == buyer){\n                    return true;\n                } else {\n                    return false;\n                }\n            }\n        }\n    }\n\n    function isNull(Diamond d) internal view returns (bool) {\n        return equals(d, NULL_DIAMOND);\n    }\n\n    function equals(Diamond d1, Diamond d2) internal pure returns (bool) {\n        return keccak256(encodeDiamond(d1)) == keccak256(encodeDiamond(d2));\n    }\n\n    function addDiamond(Diamond d, address owner) private returns (bool) {\n        for(uint i = 0; i < diamondsList.length; i++) {\n            if(equals(d, diamondsList[i]))\n              return false;\n        }\n      // NOTE: we expect that if diamond is already in diamondsList then it has a owner\n        d.diamondOwner = owner;\n        diamondsList.push(d);\n        owners[owner].push(d);\n\n        DiamondExchange memory exchange; //This memory exchange will be converted to storage once pushed into the array\n        exchange.diamond_id = d.id;\n        exchange.buyer = owner;\n        exchange.seller = owner;\n        exchange.state = ExchangeState.Finished;\n\n        diamondExchangeHistory[d.id].push(exchange);\n\n        return true;\n    }\n\n    function isOwner(address user, Diamond sellingDiamond) private view returns (bool) {\n        Diamond[] storage ownedDiamonds = owners[user];\n        for(uint i = 0; i < ownedDiamonds.length; i++) {\n            if(ownedDiamonds[i].id == sellingDiamond.id){\n                return true;\n            }\n        }\n        return false;\n    }\n\n    function isCA(address user) private view returns (bool) {\n        for(uint i = 0; i < certificate_authorities.length; i++) {\n            if(certificate_authorities[i] == user)\n              return true;\n        }\n        return false;\n    }\n\n    function encodeDiamond(Diamond d) private pure returns (bytes) {\n        return abi.encodePacked(\n          d.id,\n          d.origin,\n          d.d_type,\n          d.properties.size\n        );\n    }\n\n    function getDiamondExchangeHistoryLenght(bytes32 diamond_id) external view returns (uint) {\n        return diamondExchangeHistory[diamond_id].length;\n    }\n\n    function getNumberOfCA() external view returns (uint) {\n        return certificate_authorities.length;\n    }\n\n    function getNumberOfOwnedDiamonds(address owner) external view returns (uint) {\n        return owners[owner].length;\n    }\n\n    function getOwnedDiamondsByIndex(address owner, uint index) external view returns (bytes32, string, DiamondType, uint, address, uint) {\n        return (\n                  owners[owner][index].id,\n                  owners[owner][index].origin,\n                  owners[owner][index].d_type,\n                  owners[owner][index].properties.size,\n                  owners[owner][index].diamondOwner,\n                  owners[owner][index].diamondPrice\n                );\n    }\n}\n",
  "sourcePath": "/Users/giovanni/Documents/SdM_Assignment/solidity-experiments/contracts/Diamond2.sol",
  "compiler": {
    "name": "solc",
    "version": "0.4.24+commit.e67f0147.Emscripten.clang"
  },
  "schemaVersion": "2.0.1",
  "updatedAt": "2018-11-10T13:59:07.322Z"
}