{
  "contractName": "DiamondTracker2",
  "abi": [
    {
      "constant": true,
      "inputs": [
        {
          "name": "",
          "type": "address"
        },
        {
          "name": "",
          "type": "uint256"
        }
      ],
      "name": "owners",
      "outputs": [
        {
          "name": "id",
          "type": "bytes32"
        },
        {
          "name": "origin",
          "type": "string"
        },
        {
          "name": "d_type",
          "type": "uint8"
        },
        {
          "components": [
            {
              "name": "size",
              "type": "uint256"
            }
          ],
          "name": "properties",
          "type": "tuple"
        }
      ],
      "payable": false,
      "stateMutability": "view",
      "type": "function"
    },
    {
      "inputs": [
        {
          "name": "_certificate_authorities",
          "type": "address[]"
        }
      ],
      "payable": false,
      "stateMutability": "nonpayable",
      "type": "constructor"
    },
    {
      "anonymous": false,
      "inputs": [],
      "name": "diamondSold",
      "type": "event"
    },
    {
      "constant": false,
      "inputs": [
        {
          "name": "_owner",
          "type": "address"
        },
        {
          "name": "_type",
          "type": "uint256"
        },
        {
          "name": "_origin",
          "type": "string"
        },
        {
          "name": "_size",
          "type": "uint256"
        }
      ],
      "name": "register",
      "outputs": [
        {
          "name": "",
          "type": "bytes32"
        }
      ],
      "payable": false,
      "stateMutability": "nonpayable",
      "type": "function"
    },
    {
      "constant": false,
      "inputs": [
        {
          "name": "ID",
          "type": "bytes32"
        },
        {
          "name": "newOwner",
          "type": "address"
        }
      ],
      "name": "sellDiamond",
      "outputs": [],
      "payable": false,
      "stateMutability": "nonpayable",
      "type": "function"
    },
    {
      "constant": true,
      "inputs": [
        {
          "name": "index",
          "type": "uint256"
        }
      ],
      "name": "getDiamondByIndex",
      "outputs": [
        {
          "name": "",
          "type": "bytes32"
        },
        {
          "name": "",
          "type": "string"
        },
        {
          "name": "",
          "type": "uint8"
        },
        {
          "name": "",
          "type": "uint256"
        }
      ],
      "payable": false,
      "stateMutability": "view",
      "type": "function"
    },
    {
      "constant": true,
      "inputs": [
        {
          "name": "id",
          "type": "bytes32"
        }
      ],
      "name": "getDiamondByDiamonId",
      "outputs": [
        {
          "name": "",
          "type": "bytes32"
        },
        {
          "name": "",
          "type": "string"
        },
        {
          "name": "",
          "type": "uint8"
        },
        {
          "name": "",
          "type": "uint256"
        }
      ],
      "payable": false,
      "stateMutability": "view",
      "type": "function"
    },
    {
      "constant": true,
      "inputs": [],
      "name": "getNumberOfDiamonds",
      "outputs": [
        {
          "name": "",
          "type": "uint256"
        }
      ],
      "payable": false,
      "stateMutability": "view",
      "type": "function"
    }
  ],
  "bytecode": "0x60806040523480156200001157600080fd5b506040516200195a3803806200195a8339810180604052810190808051820192919050505080600090805190602001906200004e92919062000056565b50506200012b565b828054828255906000526020600020908101928215620000d2579160200282015b82811115620000d15782518260006101000a81548173ffffffffffffffffffffffffffffffffffffffff021916908373ffffffffffffffffffffffffffffffffffffffff1602179055509160200191906001019062000077565b5b509050620000e19190620000e5565b5090565b6200012891905b808211156200012457600081816101000a81549073ffffffffffffffffffffffffffffffffffffffff021916905550600101620000ec565b5090565b90565b61181f806200013b6000396000f300608060405260043610610078576000357c0100000000000000000000000000000000000000000000000000000000900463ffffffff168063186bb1b21461007d5780636d02acec1461014e57806386016260146101d95780639b3e2787146102ae578063c4f44d2e1461039f578063c70b9fcf146103f0575b600080fd5b34801561008957600080fd5b506100a86004803603810190808035906020019092919050505061041b565b604051808560001916600019168152602001806020018460018111156100ca57fe5b60ff168152602001838152602001828103825285818151815260200191508051906020019080838360005b838110156101105780820151818401526020810190506100f5565b50505050905090810190601f16801561013d5780820380516001836020036101000a031916815260200191505b509550505050505060405180910390f35b34801561015a57600080fd5b506101bb600480360381019080803573ffffffffffffffffffffffffffffffffffffffff1690602001909291908035906020019092919080359060200190820180359060200191909192939192939080359060200190929190505050610560565b60405180826000191660001916815260200191505060405180910390f35b3480156101e557600080fd5b5061020860048036038101908080356000191690602001909291905050506108c9565b6040518085600019166000191681526020018060200184600181111561022a57fe5b60ff168152602001838152602001828103825285818151815260200191508051906020019080838360005b83811015610270578082015181840152602081019050610255565b50505050905090810190601f16801561029d5780820380516001836020036101000a031916815260200191505b509550505050505060405180910390f35b3480156102ba57600080fd5b506102f9600480360381019080803573ffffffffffffffffffffffffffffffffffffffff16906020019092919080359060200190929190505050610a65565b6040518085600019166000191681526020018060200184600181111561031b57fe5b60ff168152602001838152602001828103825285818151815260200191508051906020019080838360005b83811015610361578082015181840152602081019050610346565b50505050905090810190601f16801561038e5780820380516001836020036101000a031916815260200191505b509550505050505060405180910390f35b3480156103ab57600080fd5b506103ee6004803603810190808035600019169060200190929190803573ffffffffffffffffffffffffffffffffffffffff169060200190929190505050610b6b565b005b3480156103fc57600080fd5b5061040561102b565b6040518082815260200191505060405180910390f35b6000606060008060028581548110151561043157fe5b90600052602060002090600402016000015460028681548110151561045257fe5b906000526020600020906004020160010160028781548110151561047257fe5b906000526020600020906004020160020160009054906101000a900460ff166002888154811015156104a057fe5b906000526020600020906004020160030160000154828054600181600116156101000203166002900480601f01602080910402602001604051908101604052809291908181526020018280546001816001161561010002031660029004801561054a5780601f1061051f5761010080835404028352916020019161054a565b820191906000526020600020905b81548152906001019060200180831161052d57829003601f168201915b5050505050925093509350935093509193509193565b600061056a61162e565b61057333611038565b151561060d576040517f08c379a00000000000000000000000000000000000000000000000000000000081526004018080602001828103825260268152602001807f596f7520617265206e6f7420616c6c6f77656420746f2063616c6c207265676981526020017f737465722829000000000000000000000000000000000000000000000000000081525060400191505060405180910390fd5b600186148061061c5750600286145b15156106b6576040517f08c379a00000000000000000000000000000000000000000000000000000000081526004018080602001828103825260278152602001807f54797065206d75737420626520312853796e74686574696329206f722032284e81526020017f61747572616c290000000000000000000000000000000000000000000000000081525060400191505060405180910390fd5b60018614156106e7576000816040019060018111156106d157fe5b908160018111156106de57fe5b81525050610715565b60028614156107145760018160400190600181111561070257fe5b9081600181111561070f57fe5b815250505b5b84848080601f016020809104026020016040519081016040528093929190818152602001838380828437820191505050505050816020018190525082816060015160000181815250506002838760405160200180838152602001828152602001925050506040516020818303038152906040526040518082805190602001908083835b6020831015156107bd5780518252602082019150602081019050602083039250610798565b6001836020036101000a0380198251168184511680821785525050505050509050019150506020604051808303816000865af1158015610801573d6000803e3d6000fd5b5050506040513d602081101561081657600080fd5b81019080805190602001909291905050508160000190600019169081600019168152505061084481886110db565b15156108b8576040517f08c379a00000000000000000000000000000000000000000000000000000000081526004018080602001828103825260168152602001807f4469616d6f6e6420616c7265616479206578697374730000000000000000000081525060200191505060405180910390fd5b806000015191505095945050505050565b6000606060008060008090505b600280549050811015610a5c5785600019166002828154811015156108f757fe5b906000526020600020906004020160000154600019161415610a4f5760028181548110151561092257fe5b90600052602060002090600402016000015460028281548110151561094357fe5b906000526020600020906004020160010160028381548110151561096357fe5b906000526020600020906004020160020160009054906101000a900460ff1660028481548110151561099157fe5b906000526020600020906004020160030160000154828054600181600116156101000203166002900480601f016020809104026020016040519081016040528092919081815260200182805460018160011615610100020316600290048015610a3b5780601f10610a1057610100808354040283529160200191610a3b565b820191906000526020600020905b815481529060010190602001808311610a1e57829003601f168201915b505050505092509450945094509450610a5d565b80806001019150506108d6565b5b509193509193565b600160205281600052604060002081815481101515610a8057fe5b906000526020600020906004020160009150915050806000015490806001018054600181600116156101000203166002900480601f016020809104026020016040519081016040528092919081815260200182805460018160011615610100020316600290048015610b335780601f10610b0857610100808354040283529160200191610b33565b820191906000526020600020905b815481529060010190602001808311610b1657829003601f168201915b5050505050908060020160009054906101000a900460ff16908060030160206040519081016040529081600082015481525050905084565b60008060008085846000018160001916905550610c94338560806040519081016040529081600082015460001916600019168152602001600182018054600181600116156101000203166002900480601f016020809104026020016040519081016040528092919081815260200182805460018160011615610100020316600290048015610c3a5780601f10610c0f57610100808354040283529160200191610c3a565b820191906000526020600020905b815481529060010190602001808311610c1d57829003601f168201915b505050505081526020016002820160009054906101000a900460ff166001811115610c6157fe5b6001811115610c6c57fe5b81526020016003820160206040519081016040529081600082015481525050815250506113be565b1515610d2e576040517f08c379a000000000000000000000000000000000000000000000000000000000815260040180806020018281038252602e8152602001807f596f7520617265206e6f7420746865206f776e6572206f66207468652073706581526020017f636966696564206469616d6f6e6400000000000000000000000000000000000081525060400191505060405180910390fd5b600160003373ffffffffffffffffffffffffffffffffffffffff1673ffffffffffffffffffffffffffffffffffffffff1681526020019081526020016000209250600091505b8280549050821015610e9757836000015460001916600160003373ffffffffffffffffffffffffffffffffffffffff1673ffffffffffffffffffffffffffffffffffffffff16815260200190815260200160002083815481101515610dd557fe5b906000526020600020906004020160000154600019161415610e8a57600160003373ffffffffffffffffffffffffffffffffffffffff1673ffffffffffffffffffffffffffffffffffffffff16815260200190815260200160002082815481101515610e3d57fe5b9060005260206000209060040201600080820160009055600182016000610e64919061166b565b6002820160006101000a81549060ff021916905560038201600080820160009055505050505b8180600101925050610d74565b600090505b600280549050811015610ff757836000015460001916600282815481101515610ec157fe5b906000526020600020906004020160000154600019161415610fea57600160008673ffffffffffffffffffffffffffffffffffffffff1673ffffffffffffffffffffffffffffffffffffffff168152602001908152602001600020600282815481101515610f2b57fe5b9060005260206000209060040201908060018154018082558091505090600182039060005260206000209060040201600090919290919091506000820154816000019060001916905560018201816001019080546001816001161561010002031660029004610f9b9291906116b3565b506002820160009054906101000a900460ff168160020160006101000a81548160ff02191690836001811115610fcd57fe5b021790555060038201816003016000820154816000015550505050505b8080600101915050610e9c565b7f85034d0e953e0f626a9a27a2f0a970196df012c636670e037b8cd5488d75ea8e60405160405180910390a1505050505050565b6000600280549050905090565b600080600090505b6000805490508110156110d0578273ffffffffffffffffffffffffffffffffffffffff1660008281548110151561107357fe5b9060005260206000200160009054906101000a900473ffffffffffffffffffffffffffffffffffffffff1673ffffffffffffffffffffffffffffffffffffffff1614156110c357600191506110d5565b8080600101915050611040565b600091505b50919050565b600080600090505b60028054905081101561123d576112228460028381548110151561110357fe5b906000526020600020906004020160806040519081016040529081600082015460001916600019168152602001600182018054600181600116156101000203166002900480601f0160208091040260200160405190810160405280929190818152602001828054600181600116156101000203166002900480156111c85780601f1061119d576101008083540402835291602001916111c8565b820191906000526020600020905b8154815290600101906020018083116111ab57829003601f168201915b505050505081526020016002820160009054906101000a900460ff1660018111156111ef57fe5b60018111156111fa57fe5b815260200160038201602060405190810160405290816000820154815250508152505061146b565b1561123057600091506113b7565b80806001019150506110e3565b6002849080600181540180825580915050906001820390600052602060002090600402016000909192909190915060008201518160000190600019169055602082015181600101908051906020019061129792919061173a565b5060408201518160020160006101000a81548160ff021916908360018111156112bc57fe5b0217905550606082015181600301600082015181600001555050505050600160008473ffffffffffffffffffffffffffffffffffffffff1673ffffffffffffffffffffffffffffffffffffffff168152602001908152602001600020849080600181540180825580915050906001820390600052602060002090600402016000909192909190915060008201518160000190600019169055602082015181600101908051906020019061137092919061173a565b5060408201518160020160006101000a81548160ff0219169083600181111561139557fe5b0217905550606082015181600301600082015181600001555050505050600191505b5092915050565b6000806000600160008673ffffffffffffffffffffffffffffffffffffffff1673ffffffffffffffffffffffffffffffffffffffff1681526020019081526020016000209150600090505b818054905081101561145e57836000015160001916828281548110151561142c57fe5b9060005260206000209060040201600001546000191614156114515760019250611463565b8080600101915050611409565b600092505b505092915050565b600061147682611554565b6040518082805190602001908083835b6020831015156114ab5780518252602082019150602081019050602083039250611486565b6001836020036101000a0380198251168184511680821785525050505050509050019150506040518091039020600019166114e584611554565b6040518082805190602001908083835b60208310151561151a57805182526020820191506020810190506020830392506114f5565b6001836020036101000a03801982511681845116808217855250505050505090500191505060405180910390206000191614905092915050565b606081600001518260200151836040015184606001516000015160405160200180856000191660001916815260200184805190602001908083835b6020831015156115b4578051825260208201915060208101905060208303925061158f565b6001836020036101000a0380198251168184511680821785525050505050509050018360018111156115e257fe5b60ff167f01000000000000000000000000000000000000000000000000000000000000000281526001018281526020019450505050506040516020818303038152906040529050919050565b60806040519081016040528060008019168152602001606081526020016000600181111561165857fe5b81526020016116656117ba565b81525090565b50805460018160011615610100020316600290046000825580601f1061169157506116b0565b601f0160209004906000526020600020908101906116af91906117ce565b5b50565b828054600181600116156101000203166002900490600052602060002090601f016020900481019282601f106116ec5780548555611729565b8280016001018555821561172957600052602060002091601f016020900482015b8281111561172857825482559160010191906001019061170d565b5b50905061173691906117ce565b5090565b828054600181600116156101000203166002900490600052602060002090601f016020900481019282601f1061177b57805160ff19168380011785556117a9565b828001600101855582156117a9579182015b828111156117a857825182559160200191906001019061178d565b5b5090506117b691906117ce565b5090565b602060405190810160405280600081525090565b6117f091905b808211156117ec5760008160009055506001016117d4565b5090565b905600a165627a7a7230582002ab0454bdd2ded44d8e75fb4fad586213c8d3dfeca374f248fae78ea02fd5860029",
  "source": "pragma solidity ^0.4.22;\n\ncontract DiamondTracker2 {\n\n    struct Diamond {\n        bytes32 id;\n        string origin;\n        DiamondType d_type;\n        DiamondProperties properties;\n    }\n\n    struct DiamondProperties {\n        uint size;\n    }\n\n    enum DiamondType { Synthetic, Natural }\n    address[] certificate_authorities;\n    // mapping(bytes32 => address) owners;\n    //the mapping between each owner (address) and the diamons possessed\n    mapping (address => Diamond[]) public owners;\n    Diamond[] diamondsList;\n\n    event diamondSold();\n\n    constructor(address[] _certificate_authorities) public {\n        certificate_authorities = _certificate_authorities;\n    }\n\n    function register(address _owner, uint _type, string _origin, uint _size) external returns (bytes32) {\n        require(isCA(msg.sender), \"You are not allowed to call register()\");\n        require(_type == 1 || _type == 2, \"Type must be 1(Synthetic) or 2(Natural)\"); //Type 1 = Synthetic, Type 2 = Natural\n\n        Diamond memory d;\n        if(_type == 1) {\n            d.d_type = DiamondType.Synthetic;\n        } else if (_type == 2) {\n            d.d_type = DiamondType.Natural;\n        }\n        d.origin = _origin;\n        d.properties.size = _size;\n        //creation of the unique ID\n        d.id = sha256(abi.encodePacked(_size, _type));\n\n        if(!addDiamond(d, _owner))\n        revert(\"Diamond already exists\");\n\n        return d.id;\n    }\n\n    function sellDiamond(bytes32 ID, address newOwner) {\n        Diamond sellingDiamond;\n        sellingDiamond.id = ID;\n        require(isOwner(msg.sender, sellingDiamond), \"You are not the owner of the specified diamond\");\n\n        Diamond[] ownedDiamonds = owners[msg.sender];\n        for(uint i = 0; i < ownedDiamonds.length; i++) {\n            if(owners[msg.sender][i].id == sellingDiamond.id){\n                delete owners[msg.sender][i];\n            }\n        }\n\n        for(uint j = 0; j < diamondsList.length; j++) {\n            if (diamondsList[j].id == sellingDiamond.id){\n                owners[newOwner].push(diamondsList[j]);\n            }\n        }\n\n        emit diamondSold();\n\n    }\n\n\n    function getDiamondByIndex(uint index) external view returns (bytes32, string, DiamondType, uint) {\n        return (\n        diamondsList[index].id,\n        diamondsList[index].origin,\n        diamondsList[index].d_type,\n        diamondsList[index].properties.size\n        );\n    }\n\n    function getDiamondByDiamonId(bytes32 id) external view returns (bytes32, string, DiamondType, uint) {\n        for(uint i = 0; i < diamondsList.length; i++) {\n            if(diamondsList[i].id == id){\n                return (\n                  diamondsList[i].id,\n                  diamondsList[i].origin,\n                  diamondsList[i].d_type,\n                  diamondsList[i].properties.size\n                );\n            }\n        }\n    }\n\n    function getNumberOfDiamonds() external view returns (uint) {\n        return diamondsList.length;\n    }\n\n    function equals(Diamond d1, Diamond d2) internal pure returns (bool) {\n        return keccak256(encodeDiamond(d1)) == keccak256(encodeDiamond(d2));\n    }\n\n    function addDiamond(Diamond d, address owner) private returns (bool) {\n        for(uint i = 0; i < diamondsList.length; i++) {\n            if(equals(d, diamondsList[i]))\n              return false;\n        }\n\n      // NOTE: we expect that if diamond is already in diamondsList then it has a owner\n        diamondsList.push(d);\n        owners[owner].push(d);\n        return true;\n    }\n\n    function isCA(address user) private view returns (bool) {\n        for(uint i = 0; i < certificate_authorities.length; i++) {\n            if(certificate_authorities[i] == user)\n              return true;\n        }\n        return false;\n    }\n\n    function isOwner(address user, Diamond sellingDiamond) private view returns (bool) {\n        Diamond[] ownedDiamonds = owners[user];\n        for(uint i = 0; i < ownedDiamonds.length; i++) {\n            if(ownedDiamonds[i].id == sellingDiamond.id){\n                return true;\n            }\n        }\n        return false;\n    }\n\n    function encodeDiamond(Diamond d) private pure returns (bytes) {\n        return abi.encodePacked(\n          d.id,\n          d.origin,\n          d.d_type,\n          d.properties.size\n        );\n    }\n}\n",
  "sourcePath": "/Users/giovanni/Documents/SdM_Assignment/solidity-experiments/contracts/Diamond2.sol",
  "compiler": {
    "name": "solc",
    "version": "0.4.24+commit.e67f0147.Emscripten.clang"
  },
  "schemaVersion": "2.0.1",
  "updatedAt": "2018-11-05T15:19:01.924Z"
}