{
  "contractName": "DiamondTracker",
  "abi": [
    {
      "inputs": [
        {
          "name": "_certificate_authorities",
          "type": "address[]"
        }
      ],
      "payable": false,
      "stateMutability": "nonpayable",
      "type": "constructor"
    },
    {
      "constant": false,
      "inputs": [
        {
          "name": "_owner",
          "type": "address"
        },
        {
          "name": "_type",
          "type": "uint256"
        },
        {
          "name": "_origin",
          "type": "string"
        },
        {
          "name": "_size",
          "type": "uint256"
        }
      ],
      "name": "register",
      "outputs": [
        {
          "name": "",
          "type": "bytes32"
        }
      ],
      "payable": false,
      "stateMutability": "nonpayable",
      "type": "function"
    },
    {
      "constant": true,
      "inputs": [
        {
          "name": "index",
          "type": "uint256"
        }
      ],
      "name": "getDiamond",
      "outputs": [
        {
          "name": "",
          "type": "bytes32"
        },
        {
          "name": "",
          "type": "string"
        },
        {
          "name": "",
          "type": "uint8"
        },
        {
          "name": "",
          "type": "uint256"
        }
      ],
      "payable": false,
      "stateMutability": "view",
      "type": "function"
    },
    {
      "constant": true,
      "inputs": [],
      "name": "getNumberOfDiamonds",
      "outputs": [
        {
          "name": "",
          "type": "uint256"
        }
      ],
      "payable": false,
      "stateMutability": "view",
      "type": "function"
    }
  ],
  "bytecode": "0x608060405234801561001057600080fd5b50604051610dba380380610dba833981018060405281019080805182019291905050508060009080519060200190610049929190610050565b505061011d565b8280548282559060005260206000209081019282156100c9579160200282015b828111156100c85782518260006101000a81548173ffffffffffffffffffffffffffffffffffffffff021916908373ffffffffffffffffffffffffffffffffffffffff16021790555091602001919060010190610070565b5b5090506100d691906100da565b5090565b61011a91905b8082111561011657600081816101000a81549073ffffffffffffffffffffffffffffffffffffffff0219169055506001016100e0565b5090565b90565b610c8e8061012c6000396000f300608060405260043610610057576000357c0100000000000000000000000000000000000000000000000000000000900463ffffffff1680636d02acec1461005c578063c70b9fcf146100e7578063e3ed14db14610112575b600080fd5b34801561006857600080fd5b506100c9600480360381019080803573ffffffffffffffffffffffffffffffffffffffff16906020019092919080359060200190929190803590602001908201803590602001919091929391929390803590602001909291905050506101e3565b60405180826000191660001916815260200191505060405180910390f35b3480156100f357600080fd5b506100fc61054c565b6040518082815260200191505060405180910390f35b34801561011e57600080fd5b5061013d60048036038101908080359060200190929190505050610559565b6040518085600019166000191681526020018060200184600181111561015f57fe5b60ff168152602001838152602001828103825285818151815260200191508051906020019080838360005b838110156101a557808201518184015260208101905061018a565b50505050905090810190601f1680156101d25780820380516001836020036101000a031916815260200191505b509550505050505060405180910390f35b60006101ed610b6c565b6101f63361069e565b1515610290576040517f08c379a00000000000000000000000000000000000000000000000000000000081526004018080602001828103825260268152602001807f596f7520617265206e6f7420616c6c6f77656420746f2063616c6c207265676981526020017f737465722829000000000000000000000000000000000000000000000000000081525060400191505060405180910390fd5b600186148061029f5750600286145b1515610339576040517f08c379a00000000000000000000000000000000000000000000000000000000081526004018080602001828103825260278152602001807f54797065206d75737420626520312853796e74686574696329206f722032284e81526020017f61747572616c290000000000000000000000000000000000000000000000000081525060400191505060405180910390fd5b600186141561036a5760008160400190600181111561035457fe5b9081600181111561036157fe5b81525050610398565b60028614156103975760018160400190600181111561038557fe5b9081600181111561039257fe5b815250505b5b84848080601f016020809104026020016040519081016040528093929190818152602001838380828437820191505050505050816020018190525082816060015160000181815250506002838760405160200180838152602001828152602001925050506040516020818303038152906040526040518082805190602001908083835b602083101515610440578051825260208201915060208101905060208303925061041b565b6001836020036101000a0380198251168184511680821785525050505050509050019150506020604051808303816000865af1158015610484573d6000803e3d6000fd5b5050506040513d602081101561049957600080fd5b8101908080519060200190929190505050816000019060001916908160001916815250506104c78188610741565b151561053b576040517f08c379a00000000000000000000000000000000000000000000000000000000081526004018080602001828103825260168152602001807f4469616d6f6e6420616c7265616479206578697374730000000000000000000081525060200191505060405180910390fd5b806000015191505095945050505050565b6000600280549050905090565b6000606060008060028581548110151561056f57fe5b90600052602060002090600402016000015460028681548110151561059057fe5b90600052602060002090600402016001016002878154811015156105b057fe5b906000526020600020906004020160020160009054906101000a900460ff166002888154811015156105de57fe5b906000526020600020906004020160030160000154828054600181600116156101000203166002900480601f0160208091040260200160405190810160405280929190818152602001828054600181600116156101000203166002900480156106885780601f1061065d57610100808354040283529160200191610688565b820191906000526020600020905b81548152906001019060200180831161066b57829003601f168201915b5050505050925093509350935093509193509193565b600080600090505b600080549050811015610736578273ffffffffffffffffffffffffffffffffffffffff166000828154811015156106d957fe5b9060005260206000200160009054906101000a900473ffffffffffffffffffffffffffffffffffffffff1673ffffffffffffffffffffffffffffffffffffffff161415610729576001915061073b565b80806001019150506106a6565b600091505b50919050565b600080600090505b6002805490508110156108a3576108888460028381548110151561076957fe5b906000526020600020906004020160806040519081016040529081600082015460001916600019168152602001600182018054600181600116156101000203166002900480601f01602080910402602001604051908101604052809291908181526020018280546001816001161561010002031660029004801561082e5780601f106108035761010080835404028352916020019161082e565b820191906000526020600020905b81548152906001019060200180831161081157829003601f168201915b505050505081526020016002820160009054906101000a900460ff16600181111561085557fe5b600181111561086057fe5b81526020016003820160206040519081016040529081600082015481525050815250506109a9565b1561089657600091506109a2565b8080600101915050610749565b600284908060018154018082558091505090600182039060005260206000209060040201600090919290919091506000820151816000019060001916905560208201518160010190805190602001906108fd929190610ba9565b5060408201518160020160006101000a81548160ff0219169083600181111561092257fe5b0217905550606082015181600301600082015181600001555050505050826001600086600001516000191660001916815260200190815260200160002060006101000a81548173ffffffffffffffffffffffffffffffffffffffff021916908373ffffffffffffffffffffffffffffffffffffffff160217905550600191505b5092915050565b60006109b482610a92565b6040518082805190602001908083835b6020831015156109e957805182526020820191506020810190506020830392506109c4565b6001836020036101000a038019825116818451168082178552505050505050905001915050604051809103902060001916610a2384610a92565b6040518082805190602001908083835b602083101515610a585780518252602082019150602081019050602083039250610a33565b6001836020036101000a03801982511681845116808217855250505050505090500191505060405180910390206000191614905092915050565b606081600001518260200151836040015184606001516000015160405160200180856000191660001916815260200184805190602001908083835b602083101515610af25780518252602082019150602081019050602083039250610acd565b6001836020036101000a038019825116818451168082178552505050505050905001836001811115610b2057fe5b60ff167f01000000000000000000000000000000000000000000000000000000000000000281526001018281526020019450505050506040516020818303038152906040529050919050565b608060405190810160405280600080191681526020016060815260200160006001811115610b9657fe5b8152602001610ba3610c29565b81525090565b828054600181600116156101000203166002900490600052602060002090601f016020900481019282601f10610bea57805160ff1916838001178555610c18565b82800160010185558215610c18579182015b82811115610c17578251825591602001919060010190610bfc565b5b509050610c259190610c3d565b5090565b602060405190810160405280600081525090565b610c5f91905b80821115610c5b576000816000905550600101610c43565b5090565b905600a165627a7a72305820501b1269fc003f4c45341eee5f61e78bfaf49e4c60bd59e3593fe00c89c269350029",
  "source": "pragma solidity ^0.4.22;\n//pragma experimental ABIEncoderV2;\n\ncontract DiamondTracker {\n\n    struct Diamond {\n        bytes32 id;\n        string origin;\n        DiamondType d_type;\n        DiamondProperties properties;\n    }\n\n    struct DiamondProperties {\n        uint size;\n        //TODO rest of the properties\n    }\n\n    enum DiamondType { Synthetic, Natural }\n\n    address[] certificate_authorities;\n    mapping(bytes32 => address) owners;\n    Diamond[] diamonds;\n\n    constructor(address[] _certificate_authorities) public {\n        certificate_authorities = _certificate_authorities;\n    }\n\n    //TODO increase number of properties\n    //Type 1 = Synthetic, Type 2 = Natural\n    function register(address _owner, uint _type, string _origin, uint _size) external returns (bytes32) {\n        require(isAllowed(msg.sender), \"You are not allowed to call register()\");\n        require(_type == 1 || _type == 2, \"Type must be 1(Synthetic) or 2(Natural)\");\n\n        Diamond memory d;\n        if(_type == 1) {\n            d.d_type = DiamondType.Synthetic;\n        } else if (_type == 2) {\n            d.d_type = DiamondType.Natural;\n        }\n        d.origin = _origin;\n        d.properties.size = _size;\n        d.id = sha256(abi.encodePacked(_size, _type));\n\n        if(!addDiamond(d, _owner))\n            revert(\"Diamond already exists\");\n\n        return d.id;\n    }\n\n    function getDiamond(uint index) external view returns (bytes32, string, DiamondType, uint) {\n        return (\n            diamonds[index].id,\n            diamonds[index].origin,\n            diamonds[index].d_type,\n            diamonds[index].properties.size\n        );\n    }\n\n    function getNumberOfDiamonds() external view returns (uint) {\n        return diamonds.length;\n    }\n\n    function equals(Diamond d1, Diamond d2) internal pure returns (bool) {\n        return keccak256(encodeDiamond(d1)) == keccak256(encodeDiamond(d2));\n    }\n\n    function addDiamond(Diamond d, address owner) private returns (bool) {\n        //TODO I think this can be optimised\n        for(uint i = 0; i < diamonds.length; i++) {\n            if(equals(d, diamonds[i]))\n                return false;\n        }\n\n        diamonds.push(d);\n        owners[d.id] = owner;\n        return true;\n    }\n\n    function isAllowed(address user) private view returns (bool) {\n        for(uint i = 0; i < certificate_authorities.length; i++) {\n            if(certificate_authorities[i] == user)\n                return true;\n        }\n\n        return false;\n    }\n\n    function encodeDiamond(Diamond d) private pure returns (bytes) {\n        return abi.encodePacked(\n            d.id,\n            d.origin,\n            d.d_type,\n            d.properties.size\n        );\n    }\n}\n",
  "sourcePath": "/Users/giovanni/Documents/SdM_Assignment/solidity-experiments/contracts/Diamond.sol",
  "compiler": {
    "name": "solc",
    "version": "0.4.24+commit.e67f0147.Emscripten.clang"
  },
  "schemaVersion": "2.0.1",
  "updatedAt": "2018-10-31T16:28:27.244Z"
}