{
  "contractName": "DiamondTracker2",
  "abi": [
    {
      "constant": true,
      "inputs": [
        {
          "name": "",
          "type": "address"
        },
        {
          "name": "",
          "type": "uint256"
        }
      ],
      "name": "owners",
      "outputs": [
        {
          "name": "id",
          "type": "bytes32"
        },
        {
          "name": "origin",
          "type": "string"
        },
        {
          "name": "d_type",
          "type": "uint8"
        },
        {
          "components": [
            {
              "name": "size",
              "type": "uint256"
            }
          ],
          "name": "properties",
          "type": "tuple"
        },
        {
          "name": "diamondOwner",
          "type": "address"
        }
      ],
      "payable": false,
      "stateMutability": "view",
      "type": "function"
    },
    {
      "constant": true,
      "inputs": [
        {
          "name": "",
          "type": "uint256"
        }
      ],
      "name": "certificate_authorities",
      "outputs": [
        {
          "name": "",
          "type": "address"
        }
      ],
      "payable": false,
      "stateMutability": "view",
      "type": "function"
    },
    {
      "constant": true,
      "inputs": [
        {
          "name": "",
          "type": "bytes32"
        },
        {
          "name": "",
          "type": "uint256"
        }
      ],
      "name": "diamondExchangeHistory",
      "outputs": [
        {
          "name": "diamond_id",
          "type": "bytes32"
        },
        {
          "name": "buyer",
          "type": "address"
        },
        {
          "name": "seller",
          "type": "address"
        },
        {
          "name": "value",
          "type": "uint256"
        },
        {
          "name": "state",
          "type": "uint8"
        }
      ],
      "payable": false,
      "stateMutability": "view",
      "type": "function"
    },
    {
      "inputs": [
        {
          "name": "_certificate_authorities",
          "type": "address[]"
        }
      ],
      "payable": false,
      "stateMutability": "nonpayable",
      "type": "constructor"
    },
    {
      "anonymous": false,
      "inputs": [],
      "name": "diamondSold",
      "type": "event"
    },
    {
      "anonymous": false,
      "inputs": [],
      "name": "diamondBuyingRequestReceived",
      "type": "event"
    },
    {
      "constant": false,
      "inputs": [
        {
          "name": "_owner",
          "type": "address"
        },
        {
          "name": "_type",
          "type": "uint256"
        },
        {
          "name": "_origin",
          "type": "string"
        },
        {
          "name": "_size",
          "type": "uint256"
        }
      ],
      "name": "register",
      "outputs": [
        {
          "name": "",
          "type": "bytes32"
        }
      ],
      "payable": false,
      "stateMutability": "nonpayable",
      "type": "function"
    },
    {
      "constant": false,
      "inputs": [
        {
          "name": "ID",
          "type": "bytes32"
        },
        {
          "name": "newOwner",
          "type": "address"
        }
      ],
      "name": "sell",
      "outputs": [],
      "payable": false,
      "stateMutability": "nonpayable",
      "type": "function"
    },
    {
      "constant": false,
      "inputs": [
        {
          "name": "diamond_id",
          "type": "bytes32"
        }
      ],
      "name": "buy",
      "outputs": [],
      "payable": true,
      "stateMutability": "payable",
      "type": "function"
    },
    {
      "constant": true,
      "inputs": [],
      "name": "getPendingBuyingRequestsSize",
      "outputs": [
        {
          "name": "",
          "type": "uint256"
        }
      ],
      "payable": false,
      "stateMutability": "view",
      "type": "function"
    },
    {
      "constant": true,
      "inputs": [
        {
          "name": "_index",
          "type": "uint256"
        }
      ],
      "name": "getPendingBuyingRequestByIndex",
      "outputs": [
        {
          "name": "",
          "type": "bytes32"
        },
        {
          "name": "",
          "type": "address"
        },
        {
          "name": "",
          "type": "uint8"
        }
      ],
      "payable": false,
      "stateMutability": "view",
      "type": "function"
    },
    {
      "constant": true,
      "inputs": [
        {
          "name": "index",
          "type": "uint256"
        }
      ],
      "name": "getDiamondByIndex",
      "outputs": [
        {
          "name": "",
          "type": "bytes32"
        },
        {
          "name": "",
          "type": "string"
        },
        {
          "name": "",
          "type": "uint8"
        },
        {
          "name": "",
          "type": "uint256"
        },
        {
          "name": "",
          "type": "address"
        }
      ],
      "payable": false,
      "stateMutability": "view",
      "type": "function"
    },
    {
      "constant": true,
      "inputs": [
        {
          "name": "id",
          "type": "bytes32"
        }
      ],
      "name": "getDiamondById",
      "outputs": [
        {
          "name": "",
          "type": "bytes32"
        },
        {
          "name": "",
          "type": "string"
        },
        {
          "name": "",
          "type": "uint8"
        },
        {
          "name": "",
          "type": "uint256"
        },
        {
          "name": "",
          "type": "address"
        }
      ],
      "payable": false,
      "stateMutability": "view",
      "type": "function"
    },
    {
      "constant": true,
      "inputs": [],
      "name": "getNumberOfDiamonds",
      "outputs": [
        {
          "name": "",
          "type": "uint256"
        }
      ],
      "payable": false,
      "stateMutability": "view",
      "type": "function"
    }
  ],
  "bytecode": "0x608060405260a0604051908101604052807f307830300000000000000000000000000000000000000000000000000000000060001916815260200160206040519081016040528060008152508152602001600060018111156200005e57fe5b815260200160206040519081016040528060008152508152602001600073ffffffffffffffffffffffffffffffffffffffff1681525060008082015181600001906000191690556020820151816001019080519060200190620000c39291906200019e565b5060408201518160020160006101000a81548160ff02191690836001811115620000e957fe5b021790555060608201518160030160008201518160000155505060808201518160040160006101000a81548173ffffffffffffffffffffffffffffffffffffffff021916908373ffffffffffffffffffffffffffffffffffffffff16021790555050503480156200015957600080fd5b5060405162002f4d38038062002f4d8339810180604052810190808051820192919050505080600590805190602001906200019692919062000225565b505062000322565b828054600181600116156101000203166002900490600052602060002090601f016020900481019282601f10620001e157805160ff191683800117855562000212565b8280016001018555821562000212579182015b8281111562000211578251825591602001919060010190620001f4565b5b509050620002219190620002b4565b5090565b828054828255906000526020600020908101928215620002a1579160200282015b82811115620002a05782518260006101000a81548173ffffffffffffffffffffffffffffffffffffffff021916908373ffffffffffffffffffffffffffffffffffffffff1602179055509160200191906001019062000246565b5b509050620002b09190620002dc565b5090565b620002d991905b80821115620002d5576000816000905550600101620002bb565b5090565b90565b6200031f91905b808211156200031b57600081816101000a81549073ffffffffffffffffffffffffffffffffffffffff021916905550600101620002e3565b5090565b90565b612c1b80620003326000396000f3006080604052600436106100af576000357c0100000000000000000000000000000000000000000000000000000000900463ffffffff168063186bb1b2146100b45780636d02acec146101b8578063798e7d1714610243578063944dfc2a146102d45780639b3e2787146103255780639c9a1061146104495780639fd575601461046d578063c70b9fcf14610498578063ca7b1edb146104c3578063e2afd868146105cb578063fb39724914610638575b600080fd5b3480156100c057600080fd5b506100df60048036038101908080359060200190929190505050610711565b6040518086600019166000191681526020018060200185600181111561010157fe5b60ff1681526020018481526020018373ffffffffffffffffffffffffffffffffffffffff1673ffffffffffffffffffffffffffffffffffffffff168152602001828103825286818151815260200191508051906020019080838360005b8381101561017957808201518184015260208101905061015e565b50505050905090810190601f1680156101a65780820380516001836020036101000a031916815260200191505b50965050505050505060405180910390f35b3480156101c457600080fd5b50610225600480360381019080803573ffffffffffffffffffffffffffffffffffffffff16906020019092919080359060200190929190803590602001908201803590602001919091929391929390803590602001909291905050506109a3565b60405180826000191660001916815260200191505060405180910390f35b34801561024f57600080fd5b5061026e60048036038101908080359060200190929190505050610d1b565b6040518084600019166000191681526020018373ffffffffffffffffffffffffffffffffffffffff1673ffffffffffffffffffffffffffffffffffffffff1681526020018260038111156102be57fe5b60ff168152602001935050505060405180910390f35b3480156102e057600080fd5b506103236004803603810190808035600019169060200190929190803573ffffffffffffffffffffffffffffffffffffffff169060200190929190505050610f11565b005b34801561033157600080fd5b50610370600480360381019080803573ffffffffffffffffffffffffffffffffffffffff169060200190929190803590602001909291905050506116fb565b6040518086600019166000191681526020018060200185600181111561039257fe5b60ff1681526020018481526020018373ffffffffffffffffffffffffffffffffffffffff1673ffffffffffffffffffffffffffffffffffffffff168152602001828103825286818151815260200191508051906020019080838360005b8381101561040a5780820151818401526020810190506103ef565b50505050905090810190601f1680156104375780820380516001836020036101000a031916815260200191505b50965050505050505060405180910390f35b61046b6004803603810190808035600019169060200190929190505050611827565b005b34801561047957600080fd5b50610482611cb5565b6040518082815260200191505060405180910390f35b3480156104a457600080fd5b506104ad611cff565b6040518082815260200191505060405180910390f35b3480156104cf57600080fd5b506104f26004803603810190808035600019169060200190929190505050611d0c565b6040518086600019166000191681526020018060200185600181111561051457fe5b60ff1681526020018481526020018373ffffffffffffffffffffffffffffffffffffffff1673ffffffffffffffffffffffffffffffffffffffff168152602001828103825286818151815260200191508051906020019080838360005b8381101561058c578082015181840152602081019050610571565b50505050905090810190601f1680156105b95780820380516001836020036101000a031916815260200191505b50965050505050505060405180910390f35b3480156105d757600080fd5b506105f660048036038101908080359060200190929190505050611fe1565b604051808273ffffffffffffffffffffffffffffffffffffffff1673ffffffffffffffffffffffffffffffffffffffff16815260200191505060405180910390f35b34801561064457600080fd5b5061067160048036038101908080356000191690602001909291908035906020019092919050505061201f565b6040518086600019166000191681526020018573ffffffffffffffffffffffffffffffffffffffff1673ffffffffffffffffffffffffffffffffffffffff1681526020018473ffffffffffffffffffffffffffffffffffffffff1673ffffffffffffffffffffffffffffffffffffffff1681526020018381526020018260038111156106f957fe5b60ff1681526020019550505050505060405180910390f35b6000606060008060006007805490508610151561081f5760008001546000600101600060020160009054906101000a900460ff16600060030160000154600060040160009054906101000a900473ffffffffffffffffffffffffffffffffffffffff16838054600181600116156101000203166002900480601f0160208091040260200160405190810160405280929190818152602001828054600181600116156101000203166002900480156108095780601f106107de57610100808354040283529160200191610809565b820191906000526020600020905b8154815290600101906020018083116107ec57829003601f168201915b505050505093509450945094509450945061099a565b60078681548110151561082e57fe5b90600052602060002090600502016000015460078781548110151561084f57fe5b906000526020600020906005020160010160078881548110151561086f57fe5b906000526020600020906005020160020160009054906101000a900460ff1660078981548110151561089d57fe5b90600052602060002090600502016003016000015460078a8154811015156108c157fe5b906000526020600020906005020160040160009054906101000a900473ffffffffffffffffffffffffffffffffffffffff16838054600181600116156101000203166002900480601f0160208091040260200160405190810160405280929190818152602001828054600181600116156101000203166002900480156109885780601f1061095d57610100808354040283529160200191610988565b820191906000526020600020905b81548152906001019060200180831161096b57829003601f168201915b50505050509350945094509450945094505b91939590929450565b60006109ad6129a3565b6109b6336120be565b1515610a50576040517f08c379a00000000000000000000000000000000000000000000000000000000081526004018080602001828103825260268152602001807f596f7520617265206e6f7420616c6c6f77656420746f2063616c6c207265676981526020017f737465722829000000000000000000000000000000000000000000000000000081525060400191505060405180910390fd5b6000861480610a5f5750600186145b1515610af9576040517f08c379a00000000000000000000000000000000000000000000000000000000081526004018080602001828103825260278152602001807f54797065206d75737420626520302853796e74686574696329206f722031284e81526020017f61747572616c290000000000000000000000000000000000000000000000000081525060400191505060405180910390fd5b6000861415610b2a57600081604001906001811115610b1457fe5b90816001811115610b2157fe5b81525050610b58565b6001861415610b5757600181604001906001811115610b4557fe5b90816001811115610b5257fe5b815250505b5b84848080601f016020809104026020016040519081016040528093929190818152602001838380828437820191505050505050816020018190525082816060015160000181815250506002838787876040516020018085815260200184815260200183838082843782019150509450505050506040516020818303038152906040526040518082805190602001908083835b602083101515610c0f5780518252602082019150602081019050602083039250610bea565b6001836020036101000a0380198251168184511680821785525050505050509050019150506020604051808303816000865af1158015610c53573d6000803e3d6000fd5b5050506040513d6020811015610c6857600080fd5b810190808051906020019092919050505081600001906000191690816000191681525050610c968188612161565b1515610d0a576040517f08c379a00000000000000000000000000000000000000000000000000000000081526004018080602001828103825260168152602001807f4469616d6f6e6420616c7265616479206578697374730000000000000000000081525060200191505060405180910390fd5b806000015191505095945050505050565b60008060006060600860003373ffffffffffffffffffffffffffffffffffffffff1673ffffffffffffffffffffffffffffffffffffffff168152602001908152602001600020805480602002602001604051908101604052809291908181526020016000905b82821015610ea9578382906000526020600020906005020160a060405190810160405290816000820154600019166000191681526020016001820160009054906101000a900473ffffffffffffffffffffffffffffffffffffffff1673ffffffffffffffffffffffffffffffffffffffff1673ffffffffffffffffffffffffffffffffffffffff1681526020016002820160009054906101000a900473ffffffffffffffffffffffffffffffffffffffff1673ffffffffffffffffffffffffffffffffffffffff1673ffffffffffffffffffffffffffffffffffffffff168152602001600382015481526020016004820160009054906101000a900460ff166003811115610e8b57fe5b6003811115610e9657fe5b8152505081526020019060010190610d81565b5050505090508085815181101515610ebd57fe5b90602001906020020151600001518186815181101515610ed957fe5b90602001906020020151602001518287815181101515610ef557fe5b9060200190602002015160800151935093509350509193909250565b6000610f1b6129a3565b60008060008060003396508886600001906000191690816000191681525050610f448787612733565b1515610fde576040517f08c379a000000000000000000000000000000000000000000000000000000000815260040180806020018281038252602e8152602001807f596f7520617265206e6f7420746865206f776e6572206f66207468652073706581526020017f636966696564206469616d6f6e6400000000000000000000000000000000000081525060400191505060405180910390fd5b600660008873ffffffffffffffffffffffffffffffffffffffff1673ffffffffffffffffffffffffffffffffffffffff1681526020019081526020016000209450600093505b848054905084101561116e57856000015160001916600660008973ffffffffffffffffffffffffffffffffffffffff1673ffffffffffffffffffffffffffffffffffffffff1681526020019081526020016000208581548110151561108557fe5b90600052602060002090600502016000015460001916141561116157600660008873ffffffffffffffffffffffffffffffffffffffff1673ffffffffffffffffffffffffffffffffffffffff168152602001908152602001600020848154811015156110ed57fe5b906000526020600020906005020160008082016000905560018201600061111491906129fd565b6002820160006101000a81549060ff02191690556003820160008082016000905550506004820160006101000a81549073ffffffffffffffffffffffffffffffffffffffff021916905550505b8380600101945050611024565b600092505b6007805490508310156113945785600001516000191660078481548110151561119857fe5b90600052602060002090600502016000015460001916141561138757876007848154811015156111c457fe5b906000526020600020906005020160040160006101000a81548173ffffffffffffffffffffffffffffffffffffffff021916908373ffffffffffffffffffffffffffffffffffffffff160217905550600660008973ffffffffffffffffffffffffffffffffffffffff1673ffffffffffffffffffffffffffffffffffffffff16815260200190815260200160002060078481548110151561126157fe5b90600052602060002090600502019080600181540180825580915050906001820390600052602060002090600502016000909192909190915060008201548160000190600019169055600182018160010190805460018160011615610100020316600290046112d1929190612a45565b506002820160009054906101000a900460ff168160020160006101000a81548160ff0219169083600181111561130357fe5b021790555060038201816003016000820154816000015550506004820160009054906101000a900473ffffffffffffffffffffffffffffffffffffffff168160040160006101000a81548173ffffffffffffffffffffffffffffffffffffffff021916908373ffffffffffffffffffffffffffffffffffffffff1602179055505050505b8280600101935050611173565b600860008873ffffffffffffffffffffffffffffffffffffffff1673ffffffffffffffffffffffffffffffffffffffff1681526020019081526020016000209150600090505b81805490508110156116c45785600001516000191682828154811015156113fd57fe5b9060005260206000209060050201600001546000191614156116b7578773ffffffffffffffffffffffffffffffffffffffff16828281548110151561143e57fe5b906000526020600020906005020160010160009054906101000a900473ffffffffffffffffffffffffffffffffffffffff1673ffffffffffffffffffffffffffffffffffffffff161415611674576003828281548110151561149c57fe5b906000526020600020906005020160040160006101000a81548160ff021916908360038111156114c857fe5b02179055506009600083838154811015156114df57fe5b90600052602060002090600502016000015460001916600019168152602001908152602001600020828281548110151561151557fe5b906000526020600020906005020190806001815401808255809150509060018203906000526020600020906005020160009091929091909150600082015481600001906000191690556001820160009054906101000a900473ffffffffffffffffffffffffffffffffffffffff168160010160006101000a81548173ffffffffffffffffffffffffffffffffffffffff021916908373ffffffffffffffffffffffffffffffffffffffff1602179055506002820160009054906101000a900473ffffffffffffffffffffffffffffffffffffffff168160020160006101000a81548173ffffffffffffffffffffffffffffffffffffffff021916908373ffffffffffffffffffffffffffffffffffffffff160217905550600382015481600301556004820160009054906101000a900460ff168160040160006101000a81548160ff0219169083600381111561166757fe5b02179055505050506116b6565b6002828281548110151561168457fe5b906000526020600020906005020160040160006101000a81548160ff021916908360038111156116b057fe5b02179055505b5b80806001019150506113da565b7f85034d0e953e0f626a9a27a2f0a970196df012c636670e037b8cd5488d75ea8e60405160405180910390a1505050505050505050565b60066020528160005260406000208181548110151561171657fe5b906000526020600020906005020160009150915050806000015490806001018054600181600116156101000203166002900480601f0160208091040260200160405190810160405280929190818152602001828054600181600116156101000203166002900480156117c95780601f1061179e576101008083540402835291602001916117c9565b820191906000526020600020905b8154815290600101906020018083116117ac57829003601f168201915b5050505050908060020160009054906101000a900460ff16908060030160206040519081016040529081600082015481525050908060040160009054906101000a900473ffffffffffffffffffffffffffffffffffffffff16905085565b6000606060008060006118386129a3565b611840612acc565b3073ffffffffffffffffffffffffffffffffffffffff1663ca7b1edb896040518263ffffffff167c0100000000000000000000000000000000000000000000000000000000028152600401808260001916600019168152602001915050600060405180830381600087803b1580156118b757600080fd5b505af11580156118cb573d6000803e3d6000fd5b505050506040513d6000823e3d601f19601f8201168201806040525060a08110156118f557600080fd5b8101908080519060200190929190805164010000000081111561191757600080fd5b8281019050602081018481111561192d57600080fd5b815185600182028301116401000000008211171561194a57600080fd5b5050929190602001805190602001909291908051906020019092919080519060200190929190505050809750819850829950839a50849b50505050505060a060405190810160405280886000191681526020018781526020018660018111156119af57fe5b81526020016020604051908101604052808781525081526020018473ffffffffffffffffffffffffffffffffffffffff1681525091503373ffffffffffffffffffffffffffffffffffffffff16826080015173ffffffffffffffffffffffffffffffffffffffff1614151515611a8d576040517f08c379a00000000000000000000000000000000000000000000000000000000081526004018080602001828103825260208152602001807f53656e64657220616c7265616479206f776e732074686973206469616d6f6e6481525060200191505060405180910390fd5b81600001518160000190600019169081600019168152505033816020019073ffffffffffffffffffffffffffffffffffffffff16908173ffffffffffffffffffffffffffffffffffffffff16815250508160800151816040019073ffffffffffffffffffffffffffffffffffffffff16908173ffffffffffffffffffffffffffffffffffffffff1681525050600081608001906003811115611b2b57fe5b90816003811115611b3857fe5b8152505060086000836080015173ffffffffffffffffffffffffffffffffffffffff1673ffffffffffffffffffffffffffffffffffffffff16815260200190815260200160002081908060018154018082558091505090600182039060005260206000209060050201600090919290919091506000820151816000019060001916905560208201518160010160006101000a81548173ffffffffffffffffffffffffffffffffffffffff021916908373ffffffffffffffffffffffffffffffffffffffff16021790555060408201518160020160006101000a81548173ffffffffffffffffffffffffffffffffffffffff021916908373ffffffffffffffffffffffffffffffffffffffff1602179055506060820151816003015560808201518160040160006101000a81548160ff02191690836003811115611c7757fe5b02179055505050507f845971218661c80b2aafa31bbbb42bb8ce242e7427ac40d9c45796159672062660405160405180910390a15050505050505050565b6000600860003373ffffffffffffffffffffffffffffffffffffffff1673ffffffffffffffffffffffffffffffffffffffff16815260200190815260200160002080549050905090565b6000600780549050905090565b60006060600080600080600090505b600780549050811015611ee4578660001916600782815481101515611d3c57fe5b906000526020600020906005020160000154600019161415611ed757600781815481101515611d6757fe5b906000526020600020906005020160000154600782815481101515611d8857fe5b9060005260206000209060050201600101600783815481101515611da857fe5b906000526020600020906005020160020160009054906101000a900460ff16600784815481101515611dd657fe5b906000526020600020906005020160030160000154600785815481101515611dfa57fe5b906000526020600020906005020160040160009054906101000a900473ffffffffffffffffffffffffffffffffffffffff16838054600181600116156101000203166002900480601f016020809104026020016040519081016040528092919081815260200182805460018160011615610100020316600290048015611ec15780601f10611e9657610100808354040283529160200191611ec1565b820191906000526020600020905b815481529060010190602001808311611ea457829003601f168201915b5050505050935095509550955095509550611fd7565b8080600101915050611d1b565b60008001546000600101600060020160009054906101000a900460ff16600060030160000154600060040160009054906101000a900473ffffffffffffffffffffffffffffffffffffffff16838054600181600116156101000203166002900480601f016020809104026020016040519081016040528092919081815260200182805460018160011615610100020316600290048015611fc55780601f10611f9a57610100808354040283529160200191611fc5565b820191906000526020600020905b815481529060010190602001808311611fa857829003601f168201915b50505050509350955095509550955095505b5091939590929450565b600581815481101515611ff057fe5b906000526020600020016000915054906101000a900473ffffffffffffffffffffffffffffffffffffffff1681565b60096020528160005260406000208181548110151561203a57fe5b9060005260206000209060050201600091509150508060000154908060010160009054906101000a900473ffffffffffffffffffffffffffffffffffffffff16908060020160009054906101000a900473ffffffffffffffffffffffffffffffffffffffff16908060030154908060040160009054906101000a900460ff16905085565b600080600090505b600580549050811015612156578273ffffffffffffffffffffffffffffffffffffffff166005828154811015156120f957fe5b9060005260206000200160009054906101000a900473ffffffffffffffffffffffffffffffffffffffff1673ffffffffffffffffffffffffffffffffffffffff161415612149576001915061215b565b80806001019150506120c6565b600091505b50919050565b60008061216c612acc565b600091505b600780549050821015612321576123068560078481548110151561219157fe5b906000526020600020906005020160a06040519081016040529081600082015460001916600019168152602001600182018054600181600116156101000203166002900480601f0160208091040260200160405190810160405280929190818152602001828054600181600116156101000203166002900480156122565780601f1061222b57610100808354040283529160200191612256565b820191906000526020600020905b81548152906001019060200180831161223957829003601f168201915b505050505081526020016002820160009054906101000a900460ff16600181111561227d57fe5b600181111561228857fe5b8152602001600382016020604051908101604052908160008201548152505081526020016004820160009054906101000a900473ffffffffffffffffffffffffffffffffffffffff1673ffffffffffffffffffffffffffffffffffffffff1673ffffffffffffffffffffffffffffffffffffffff16815250506127e0565b15612314576000925061272b565b8180600101925050612171565b83856080019073ffffffffffffffffffffffffffffffffffffffff16908173ffffffffffffffffffffffffffffffffffffffff1681525050600785908060018154018082558091505090600182039060005260206000209060050201600090919290919091506000820151816000019060001916905560208201518160010190805190602001906123b3929190612b36565b5060408201518160020160006101000a81548160ff021916908360018111156123d857fe5b021790555060608201518160030160008201518160000155505060808201518160040160006101000a81548173ffffffffffffffffffffffffffffffffffffffff021916908373ffffffffffffffffffffffffffffffffffffffff160217905550505050600660008573ffffffffffffffffffffffffffffffffffffffff1673ffffffffffffffffffffffffffffffffffffffff16815260200190815260200160002085908060018154018082558091505090600182039060005260206000209060050201600090919290919091506000820151816000019060001916905560208201518160010190805190602001906124d3929190612b36565b5060408201518160020160006101000a81548160ff021916908360018111156124f857fe5b021790555060608201518160030160008201518160000155505060808201518160040160006101000a81548173ffffffffffffffffffffffffffffffffffffffff021916908373ffffffffffffffffffffffffffffffffffffffff16021790555050505084600001518160000190600019169081600019168152505083816020019073ffffffffffffffffffffffffffffffffffffffff16908173ffffffffffffffffffffffffffffffffffffffff168152505083816040019073ffffffffffffffffffffffffffffffffffffffff16908173ffffffffffffffffffffffffffffffffffffffff16815250506003816080019060038111156125f657fe5b9081600381111561260357fe5b815250506009600086600001516000191660001916815260200190815260200160002081908060018154018082558091505090600182039060005260206000209060050201600090919290919091506000820151816000019060001916905560208201518160010160006101000a81548173ffffffffffffffffffffffffffffffffffffffff021916908373ffffffffffffffffffffffffffffffffffffffff16021790555060408201518160020160006101000a81548173ffffffffffffffffffffffffffffffffffffffff021916908373ffffffffffffffffffffffffffffffffffffffff1602179055506060820151816003015560808201518160040160006101000a81548160ff0219169083600381111561271e57fe5b0217905550505050600192505b505092915050565b6000806000600660008673ffffffffffffffffffffffffffffffffffffffff1673ffffffffffffffffffffffffffffffffffffffff1681526020019081526020016000209150600090505b81805490508110156127d35783600001516000191682828154811015156127a157fe5b9060005260206000209060050201600001546000191614156127c657600192506127d8565b808060010191505061277e565b600092505b505092915050565b60006127eb826128c9565b6040518082805190602001908083835b60208310151561282057805182526020820191506020810190506020830392506127fb565b6001836020036101000a03801982511681845116808217855250505050505090500191505060405180910390206000191661285a846128c9565b6040518082805190602001908083835b60208310151561288f578051825260208201915060208101905060208303925061286a565b6001836020036101000a03801982511681845116808217855250505050505090500191505060405180910390206000191614905092915050565b606081600001518260200151836040015184606001516000015160405160200180856000191660001916815260200184805190602001908083835b6020831015156129295780518252602082019150602081019050602083039250612904565b6001836020036101000a03801982511681845116808217855250505050505090500183600181111561295757fe5b60ff167f01000000000000000000000000000000000000000000000000000000000000000281526001018281526020019450505050506040516020818303038152906040529050919050565b60a0604051908101604052806000801916815260200160608152602001600060018111156129cd57fe5b81526020016129da612bb6565b8152602001600073ffffffffffffffffffffffffffffffffffffffff1681525090565b50805460018160011615610100020316600290046000825580601f10612a235750612a42565b601f016020900490600052602060002090810190612a419190612bca565b5b50565b828054600181600116156101000203166002900490600052602060002090601f016020900481019282601f10612a7e5780548555612abb565b82800160010185558215612abb57600052602060002091601f016020900482015b82811115612aba578254825591600101919060010190612a9f565b5b509050612ac89190612bca565b5090565b60a06040519081016040528060008019168152602001600073ffffffffffffffffffffffffffffffffffffffff168152602001600073ffffffffffffffffffffffffffffffffffffffff1681526020016000815260200160006003811115612b3057fe5b81525090565b828054600181600116156101000203166002900490600052602060002090601f016020900481019282601f10612b7757805160ff1916838001178555612ba5565b82800160010185558215612ba5579182015b82811115612ba4578251825591602001919060010190612b89565b5b509050612bb29190612bca565b5090565b602060405190810160405280600081525090565b612bec91905b80821115612be8576000816000905550600101612bd0565b5090565b905600a165627a7a72305820ad2ec6af6e12f2703e641e85052fd0cd4e2017b15722c4b0652e02cc6fcda3e90029",
  "source": "pragma solidity ^0.4.22;\n\ncontract DiamondTracker2 {\n\n    struct Diamond {\n        bytes32 id;\n        string origin;\n        DiamondType d_type;\n        DiamondProperties properties;\n        address diamondOwner;\n    }\n\n    //Can't declare as constant. Constant non-value types not yet supported\n    Diamond NULL_DIAMOND = Diamond({\n        id: \"0x00\",\n        origin: \"\",\n        d_type: DiamondType.Synthetic,\n        properties: DiamondProperties(0),\n        diamondOwner: 0x00\n    });\n\n    struct DiamondProperties {\n        uint size;\n    }\n\n    enum ExchangeState { Pending, Approved, Rejected, Finished} //TODO Review the states needed\n    struct DiamondExchange {\n        bytes32 diamond_id;\n        address buyer;\n        address seller;\n        uint value; //In ether\n        ExchangeState state;\n    }\n\n    enum DiamondType { Synthetic, Natural }\n    address[] public certificate_authorities;\n\n    //the mapping between each owner (address) and the diamons possessed\n    mapping (address => Diamond[]) public owners;\n\n    //list of the diamonds tracked in the ledger\n    Diamond[] diamondsList;\n\n    mapping (address => DiamondExchange[]) diamondExchangeRequests;\n\n    mapping (bytes32 => DiamondExchange[]) public diamondExchangeHistory;\n\n    event diamondSold();\n    event diamondBuyingRequestReceived();\n\n    constructor(address[] _certificate_authorities) public {\n        certificate_authorities = _certificate_authorities;\n    }\n\n    function register(address _owner, uint _type, string _origin, uint _size) external returns (bytes32) {\n        require(isCA(msg.sender), \"You are not allowed to call register()\");\n        require(_type == 0 || _type == 1, \"Type must be 0(Synthetic) or 1(Natural)\"); //Type 0 = Synthetic, Type 1 = Natural\n\n        Diamond memory d;\n        if(_type == 0) {\n            d.d_type = DiamondType.Synthetic;\n        } else if (_type == 1) {\n            d.d_type = DiamondType.Natural;\n        }\n        d.origin = _origin;\n        d.properties.size = _size;\n\n        d.id = sha256(abi.encodePacked(_size, _type, _origin)); //creation of the unique ID\n\n        if(!addDiamond(d, _owner))\n            revert(\"Diamond already exists\");\n\n\n\n        return d.id;\n    }\n\n    function sell(bytes32 ID, address newOwner) external {\n      address oldOwner = msg.sender;\n    //     sell(ID, msg.sender, newOwner);\n    // }\n    // function sell(bytes32 ID, address oldOwner, address newOwner) private {\n        Diamond memory sellingDiamond;\n        sellingDiamond.id = ID;\n        require(isOwner(oldOwner, sellingDiamond), \"You are not the owner of the specified diamond\");\n\n        Diamond[] storage ownedDiamonds = owners[oldOwner];\n        for(uint i = 0; i < ownedDiamonds.length; i++) {\n            if(owners[oldOwner][i].id == sellingDiamond.id){\n                delete owners[oldOwner][i];\n            }\n        }\n\n        for(uint j = 0; j < diamondsList.length; j++) {\n            if (diamondsList[j].id == sellingDiamond.id){\n                diamondsList[j].diamondOwner = newOwner;\n                owners[newOwner].push(diamondsList[j]);\n            }\n        }\n\n        //get the buy requests of the msg.sender\n        DiamondExchange[] storage exchangesRequests = diamondExchangeRequests[oldOwner];\n        for(uint k = 0; k < exchangesRequests.length; k++) {\n            // if a request for the diamond_id is found\n            if (exchangesRequests[k].diamond_id == sellingDiamond.id){\n                // if that request is related to the person whom received the diamond\n                if (exchangesRequests[k].buyer == newOwner){\n                    exchangesRequests[k].state = ExchangeState.Finished;\n                    //update the buying history of the Diamond\n                    diamondExchangeHistory[exchangesRequests[k].diamond_id].push(exchangesRequests[k]);\n                } else {\n                    // otherwise set it to rejected\n                    exchangesRequests[k].state = ExchangeState.Rejected;\n                }\n            }\n        }\n\n        emit diamondSold();\n    }\n\n    function buy(bytes32 diamond_id) external payable {\n\n        bytes32 id;\n        string memory origin;\n        DiamondType d_type;\n        uint size;\n        address diamondOwner;\n        (id, origin, d_type, size, diamondOwner) = this.getDiamondById(diamond_id);\n        Diamond memory sellingDiamond = Diamond({\n            id: id,\n            origin: origin,\n            d_type: d_type,\n            properties: DiamondProperties(size),\n            diamondOwner: diamondOwner\n        });\n\n        //require(!equals(sellingDiamond, NULL_DIAMOND), \"Must request to buy an existing diamond\");\n        require(!(sellingDiamond.diamondOwner == msg.sender), \"Sender already owns this diamond\");\n\n        DiamondExchange memory exchange; //This memory exchange will be converted to storage once pushed into the array\n        exchange.diamond_id = sellingDiamond.id;\n        exchange.buyer = msg.sender;\n        exchange.seller = sellingDiamond.diamondOwner;\n        // exchange.value = msg.value;\n        exchange.state = ExchangeState.Pending;\n\n        diamondExchangeRequests[sellingDiamond.diamondOwner].push(exchange);\n\n        emit diamondBuyingRequestReceived();\n        //TODO Logic of the function\n\n    }\n\n    function getPendingBuyingRequestsSize() external view returns (uint) {\n        return diamondExchangeRequests[msg.sender].length;\n    }\n\n    function getPendingBuyingRequestByIndex(uint _index) external view returns (bytes32, address, ExchangeState) {\n        DiamondExchange[] memory exchangesRequests = diamondExchangeRequests[msg.sender];\n        return(\n            exchangesRequests[_index].diamond_id,\n            exchangesRequests[_index].buyer,\n            exchangesRequests[_index].state\n            // exchanges[i].value\n            );\n    }\n\n    function getDiamondByIndex(uint index) external view returns (bytes32, string, DiamondType, uint, address) {\n        if(index >= diamondsList.length) { //Assuming no diamonds are deleted from the system\n            return (\n                NULL_DIAMOND.id,\n                NULL_DIAMOND.origin,\n                NULL_DIAMOND.d_type,\n                NULL_DIAMOND.properties.size,\n                NULL_DIAMOND.diamondOwner\n            );\n        } else {\n            return (\n                diamondsList[index].id,\n                diamondsList[index].origin,\n                diamondsList[index].d_type,\n                diamondsList[index].properties.size,\n                diamondsList[index].diamondOwner\n            );\n        }\n    }\n\n    function getDiamondById(bytes32 id) external view returns (bytes32, string, DiamondType, uint, address) {\n        for(uint i = 0; i < diamondsList.length; i++) {\n            if(diamondsList[i].id == id){\n                return (\n                  diamondsList[i].id,\n                  diamondsList[i].origin,\n                  diamondsList[i].d_type,\n                  diamondsList[i].properties.size,\n                  diamondsList[i].diamondOwner\n                );\n            }\n        }\n        return (NULL_DIAMOND.id, NULL_DIAMOND.origin, NULL_DIAMOND.d_type, NULL_DIAMOND.properties.size, NULL_DIAMOND.diamondOwner);\n    }\n\n    function getNumberOfDiamonds() external view returns (uint) {\n        return diamondsList.length;\n    }\n\n    function equals(Diamond d1, Diamond d2) internal pure returns (bool) {\n        return keccak256(encodeDiamond(d1)) == keccak256(encodeDiamond(d2));\n    }\n\n    function addDiamond(Diamond d, address owner) private returns (bool) {\n        for(uint i = 0; i < diamondsList.length; i++) {\n            if(equals(d, diamondsList[i]))\n              return false;\n        }\n      // NOTE: we expect that if diamond is already in diamondsList then it has a owner\n        d.diamondOwner = owner;\n        diamondsList.push(d);\n        owners[owner].push(d);\n\n        //register event to diamond history\n\n        DiamondExchange memory exchange; //This memory exchange will be converted to storage once pushed into the array\n        exchange.diamond_id = d.id;\n        exchange.buyer = owner;\n        exchange.seller = owner;\n        // exchange.value = msg.value;\n        exchange.state = ExchangeState.Finished;\n\n        diamondExchangeHistory[d.id].push(exchange);\n\n        return true;\n    }\n\n\n\n    function isOwner(address user, Diamond sellingDiamond) private view returns (bool) {\n        Diamond[] storage ownedDiamonds = owners[user];\n        for(uint i = 0; i < ownedDiamonds.length; i++) {\n            if(ownedDiamonds[i].id == sellingDiamond.id){\n                return true;\n            }\n        }\n        return false;\n    }\n\n    function isCA(address user) private view returns (bool) {\n        for(uint i = 0; i < certificate_authorities.length; i++) {\n            if(certificate_authorities[i] == user)\n              return true;\n        }\n        return false;\n    }\n\n    function encodeDiamond(Diamond d) private pure returns (bytes) {\n        return abi.encodePacked(\n          d.id,\n          d.origin,\n          d.d_type,\n          d.properties.size\n        );\n    }\n}\n",
  "sourcePath": "/Users/giovanni/Documents/SdM_Assignment/solidity-experiments/contracts/Diamond2.sol",
  "compiler": {
    "name": "solc",
    "version": "0.4.24+commit.e67f0147.Emscripten.clang"
  },
  "schemaVersion": "2.0.1",
  "updatedAt": "2018-11-09T13:30:13.633Z"
}