{
  "contractName": "DiamondTracker2",
  "abi": [
    {
      "constant": true,
      "inputs": [
        {
          "name": "",
          "type": "address"
        },
        {
          "name": "",
          "type": "uint256"
        }
      ],
      "name": "owners",
      "outputs": [
        {
          "name": "id",
          "type": "bytes32"
        },
        {
          "name": "origin",
          "type": "string"
        },
        {
          "name": "d_type",
          "type": "uint8"
        },
        {
          "components": [
            {
              "name": "size",
              "type": "uint256"
            }
          ],
          "name": "properties",
          "type": "tuple"
        }
      ],
      "payable": false,
      "stateMutability": "view",
      "type": "function"
    },
    {
      "constant": true,
      "inputs": [
        {
          "name": "",
          "type": "uint256"
        }
      ],
      "name": "certificate_authorities",
      "outputs": [
        {
          "name": "",
          "type": "address"
        }
      ],
      "payable": false,
      "stateMutability": "view",
      "type": "function"
    },
    {
      "inputs": [
        {
          "name": "_certificate_authorities",
          "type": "address[]"
        }
      ],
      "payable": false,
      "stateMutability": "nonpayable",
      "type": "constructor"
    },
    {
      "anonymous": false,
      "inputs": [],
      "name": "diamondSold",
      "type": "event"
    },
    {
      "constant": false,
      "inputs": [
        {
          "name": "_owner",
          "type": "address"
        },
        {
          "name": "_type",
          "type": "uint256"
        },
        {
          "name": "_origin",
          "type": "string"
        },
        {
          "name": "_size",
          "type": "uint256"
        }
      ],
      "name": "register",
      "outputs": [
        {
          "name": "",
          "type": "bytes32"
        }
      ],
      "payable": false,
      "stateMutability": "nonpayable",
      "type": "function"
    },
    {
      "constant": false,
      "inputs": [
        {
          "name": "ID",
          "type": "bytes32"
        },
        {
          "name": "newOwner",
          "type": "address"
        }
      ],
      "name": "sellDiamond",
      "outputs": [],
      "payable": false,
      "stateMutability": "nonpayable",
      "type": "function"
    },
    {
      "constant": true,
      "inputs": [
        {
          "name": "index",
          "type": "uint256"
        }
      ],
      "name": "getDiamondByIndex",
      "outputs": [
        {
          "name": "",
          "type": "bytes32"
        },
        {
          "name": "",
          "type": "string"
        },
        {
          "name": "",
          "type": "uint8"
        },
        {
          "name": "",
          "type": "uint256"
        }
      ],
      "payable": false,
      "stateMutability": "view",
      "type": "function"
    },
    {
      "constant": true,
      "inputs": [
        {
          "name": "id",
          "type": "bytes32"
        }
      ],
      "name": "getDiamondByDiamonId",
      "outputs": [
        {
          "name": "",
          "type": "bytes32"
        },
        {
          "name": "",
          "type": "string"
        },
        {
          "name": "",
          "type": "uint8"
        },
        {
          "name": "",
          "type": "uint256"
        }
      ],
      "payable": false,
      "stateMutability": "view",
      "type": "function"
    },
    {
      "constant": true,
      "inputs": [],
      "name": "getNumberOfDiamonds",
      "outputs": [
        {
          "name": "",
          "type": "uint256"
        }
      ],
      "payable": false,
      "stateMutability": "view",
      "type": "function"
    }
  ],
  "bytecode": "0x60806040523480156200001157600080fd5b5060405162001a1038038062001a108339810180604052810190808051820192919050505080600090805190602001906200004e92919062000056565b50506200012b565b828054828255906000526020600020908101928215620000d2579160200282015b82811115620000d15782518260006101000a81548173ffffffffffffffffffffffffffffffffffffffff021916908373ffffffffffffffffffffffffffffffffffffffff1602179055509160200191906001019062000077565b5b509050620000e19190620000e5565b5090565b6200012891905b808211156200012457600081816101000a81549073ffffffffffffffffffffffffffffffffffffffff021916905550600101620000ec565b5090565b90565b6118d5806200013b6000396000f300608060405260043610610083576000357c0100000000000000000000000000000000000000000000000000000000900463ffffffff168063186bb1b2146100885780636d02acec1461015957806386016260146101e45780639b3e2787146102b9578063c4f44d2e146103aa578063c70b9fcf146103fb578063e2afd86814610426575b600080fd5b34801561009457600080fd5b506100b360048036038101908080359060200190929190505050610493565b604051808560001916600019168152602001806020018460018111156100d557fe5b60ff168152602001838152602001828103825285818151815260200191508051906020019080838360005b8381101561011b578082015181840152602081019050610100565b50505050905090810190601f1680156101485780820380516001836020036101000a031916815260200191505b509550505050505060405180910390f35b34801561016557600080fd5b506101c6600480360381019080803573ffffffffffffffffffffffffffffffffffffffff16906020019092919080359060200190929190803590602001908201803590602001919091929391929390803590602001909291905050506105d8565b60405180826000191660001916815260200191505060405180910390f35b3480156101f057600080fd5b506102136004803603810190808035600019169060200190929190505050610941565b6040518085600019166000191681526020018060200184600181111561023557fe5b60ff168152602001838152602001828103825285818151815260200191508051906020019080838360005b8381101561027b578082015181840152602081019050610260565b50505050905090810190601f1680156102a85780820380516001836020036101000a031916815260200191505b509550505050505060405180910390f35b3480156102c557600080fd5b50610304600480360381019080803573ffffffffffffffffffffffffffffffffffffffff16906020019092919080359060200190929190505050610add565b6040518085600019166000191681526020018060200184600181111561032657fe5b60ff168152602001838152602001828103825285818151815260200191508051906020019080838360005b8381101561036c578082015181840152602081019050610351565b50505050905090810190601f1680156103995780820380516001836020036101000a031916815260200191505b509550505050505060405180910390f35b3480156103b657600080fd5b506103f96004803603810190808035600019169060200190929190803573ffffffffffffffffffffffffffffffffffffffff169060200190929190505050610be3565b005b34801561040757600080fd5b506104106110a3565b6040518082815260200191505060405180910390f35b34801561043257600080fd5b50610451600480360381019080803590602001909291905050506110b0565b604051808273ffffffffffffffffffffffffffffffffffffffff1673ffffffffffffffffffffffffffffffffffffffff16815260200191505060405180910390f35b600060606000806002858154811015156104a957fe5b9060005260206000209060040201600001546002868154811015156104ca57fe5b90600052602060002090600402016001016002878154811015156104ea57fe5b906000526020600020906004020160020160009054906101000a900460ff1660028881548110151561051857fe5b906000526020600020906004020160030160000154828054600181600116156101000203166002900480601f0160208091040260200160405190810160405280929190818152602001828054600181600116156101000203166002900480156105c25780601f10610597576101008083540402835291602001916105c2565b820191906000526020600020905b8154815290600101906020018083116105a557829003601f168201915b5050505050925093509350935093509193509193565b60006105e26116e4565b6105eb336110ee565b1515610685576040517f08c379a00000000000000000000000000000000000000000000000000000000081526004018080602001828103825260268152602001807f596f7520617265206e6f7420616c6c6f77656420746f2063616c6c207265676981526020017f737465722829000000000000000000000000000000000000000000000000000081525060400191505060405180910390fd5b60018614806106945750600286145b151561072e576040517f08c379a00000000000000000000000000000000000000000000000000000000081526004018080602001828103825260278152602001807f54797065206d75737420626520312853796e74686574696329206f722032284e81526020017f61747572616c290000000000000000000000000000000000000000000000000081525060400191505060405180910390fd5b600186141561075f5760008160400190600181111561074957fe5b9081600181111561075657fe5b8152505061078d565b600286141561078c5760018160400190600181111561077a57fe5b9081600181111561078757fe5b815250505b5b84848080601f016020809104026020016040519081016040528093929190818152602001838380828437820191505050505050816020018190525082816060015160000181815250506002838760405160200180838152602001828152602001925050506040516020818303038152906040526040518082805190602001908083835b6020831015156108355780518252602082019150602081019050602083039250610810565b6001836020036101000a0380198251168184511680821785525050505050509050019150506020604051808303816000865af1158015610879573d6000803e3d6000fd5b5050506040513d602081101561088e57600080fd5b8101908080519060200190929190505050816000019060001916908160001916815250506108bc8188611191565b1515610930576040517f08c379a00000000000000000000000000000000000000000000000000000000081526004018080602001828103825260168152602001807f4469616d6f6e6420616c7265616479206578697374730000000000000000000081525060200191505060405180910390fd5b806000015191505095945050505050565b6000606060008060008090505b600280549050811015610ad457856000191660028281548110151561096f57fe5b906000526020600020906004020160000154600019161415610ac75760028181548110151561099a57fe5b9060005260206000209060040201600001546002828154811015156109bb57fe5b90600052602060002090600402016001016002838154811015156109db57fe5b906000526020600020906004020160020160009054906101000a900460ff16600284815481101515610a0957fe5b906000526020600020906004020160030160000154828054600181600116156101000203166002900480601f016020809104026020016040519081016040528092919081815260200182805460018160011615610100020316600290048015610ab35780601f10610a8857610100808354040283529160200191610ab3565b820191906000526020600020905b815481529060010190602001808311610a9657829003601f168201915b505050505092509450945094509450610ad5565b808060010191505061094e565b5b509193509193565b600160205281600052604060002081815481101515610af857fe5b906000526020600020906004020160009150915050806000015490806001018054600181600116156101000203166002900480601f016020809104026020016040519081016040528092919081815260200182805460018160011615610100020316600290048015610bab5780601f10610b8057610100808354040283529160200191610bab565b820191906000526020600020905b815481529060010190602001808311610b8e57829003601f168201915b5050505050908060020160009054906101000a900460ff16908060030160206040519081016040529081600082015481525050905084565b60008060008085846000018160001916905550610d0c338560806040519081016040529081600082015460001916600019168152602001600182018054600181600116156101000203166002900480601f016020809104026020016040519081016040528092919081815260200182805460018160011615610100020316600290048015610cb25780601f10610c8757610100808354040283529160200191610cb2565b820191906000526020600020905b815481529060010190602001808311610c9557829003601f168201915b505050505081526020016002820160009054906101000a900460ff166001811115610cd957fe5b6001811115610ce457fe5b8152602001600382016020604051908101604052908160008201548152505081525050611474565b1515610da6576040517f08c379a000000000000000000000000000000000000000000000000000000000815260040180806020018281038252602e8152602001807f596f7520617265206e6f7420746865206f776e6572206f66207468652073706581526020017f636966696564206469616d6f6e6400000000000000000000000000000000000081525060400191505060405180910390fd5b600160003373ffffffffffffffffffffffffffffffffffffffff1673ffffffffffffffffffffffffffffffffffffffff1681526020019081526020016000209250600091505b8280549050821015610f0f57836000015460001916600160003373ffffffffffffffffffffffffffffffffffffffff1673ffffffffffffffffffffffffffffffffffffffff16815260200190815260200160002083815481101515610e4d57fe5b906000526020600020906004020160000154600019161415610f0257600160003373ffffffffffffffffffffffffffffffffffffffff1673ffffffffffffffffffffffffffffffffffffffff16815260200190815260200160002082815481101515610eb557fe5b9060005260206000209060040201600080820160009055600182016000610edc9190611721565b6002820160006101000a81549060ff021916905560038201600080820160009055505050505b8180600101925050610dec565b600090505b60028054905081101561106f57836000015460001916600282815481101515610f3957fe5b90600052602060002090600402016000015460001916141561106257600160008673ffffffffffffffffffffffffffffffffffffffff1673ffffffffffffffffffffffffffffffffffffffff168152602001908152602001600020600282815481101515610fa357fe5b9060005260206000209060040201908060018154018082558091505090600182039060005260206000209060040201600090919290919091506000820154816000019060001916905560018201816001019080546001816001161561010002031660029004611013929190611769565b506002820160009054906101000a900460ff168160020160006101000a81548160ff0219169083600181111561104557fe5b021790555060038201816003016000820154816000015550505050505b8080600101915050610f14565b7f85034d0e953e0f626a9a27a2f0a970196df012c636670e037b8cd5488d75ea8e60405160405180910390a1505050505050565b6000600280549050905090565b6000818154811015156110bf57fe5b906000526020600020016000915054906101000a900473ffffffffffffffffffffffffffffffffffffffff1681565b600080600090505b600080549050811015611186578273ffffffffffffffffffffffffffffffffffffffff1660008281548110151561112957fe5b9060005260206000200160009054906101000a900473ffffffffffffffffffffffffffffffffffffffff1673ffffffffffffffffffffffffffffffffffffffff161415611179576001915061118b565b80806001019150506110f6565b600091505b50919050565b600080600090505b6002805490508110156112f3576112d8846002838154811015156111b957fe5b906000526020600020906004020160806040519081016040529081600082015460001916600019168152602001600182018054600181600116156101000203166002900480601f01602080910402602001604051908101604052809291908181526020018280546001816001161561010002031660029004801561127e5780601f106112535761010080835404028352916020019161127e565b820191906000526020600020905b81548152906001019060200180831161126157829003601f168201915b505050505081526020016002820160009054906101000a900460ff1660018111156112a557fe5b60018111156112b057fe5b8152602001600382016020604051908101604052908160008201548152505081525050611521565b156112e6576000915061146d565b8080600101915050611199565b6002849080600181540180825580915050906001820390600052602060002090600402016000909192909190915060008201518160000190600019169055602082015181600101908051906020019061134d9291906117f0565b5060408201518160020160006101000a81548160ff0219169083600181111561137257fe5b0217905550606082015181600301600082015181600001555050505050600160008473ffffffffffffffffffffffffffffffffffffffff1673ffffffffffffffffffffffffffffffffffffffff16815260200190815260200160002084908060018154018082558091505090600182039060005260206000209060040201600090919290919091506000820151816000019060001916905560208201518160010190805190602001906114269291906117f0565b5060408201518160020160006101000a81548160ff0219169083600181111561144b57fe5b0217905550606082015181600301600082015181600001555050505050600191505b5092915050565b6000806000600160008673ffffffffffffffffffffffffffffffffffffffff1673ffffffffffffffffffffffffffffffffffffffff1681526020019081526020016000209150600090505b81805490508110156115145783600001516000191682828154811015156114e257fe5b9060005260206000209060040201600001546000191614156115075760019250611519565b80806001019150506114bf565b600092505b505092915050565b600061152c8261160a565b6040518082805190602001908083835b602083101515611561578051825260208201915060208101905060208303925061153c565b6001836020036101000a03801982511681845116808217855250505050505090500191505060405180910390206000191661159b8461160a565b6040518082805190602001908083835b6020831015156115d057805182526020820191506020810190506020830392506115ab565b6001836020036101000a03801982511681845116808217855250505050505090500191505060405180910390206000191614905092915050565b606081600001518260200151836040015184606001516000015160405160200180856000191660001916815260200184805190602001908083835b60208310151561166a5780518252602082019150602081019050602083039250611645565b6001836020036101000a03801982511681845116808217855250505050505090500183600181111561169857fe5b60ff167f01000000000000000000000000000000000000000000000000000000000000000281526001018281526020019450505050506040516020818303038152906040529050919050565b60806040519081016040528060008019168152602001606081526020016000600181111561170e57fe5b815260200161171b611870565b81525090565b50805460018160011615610100020316600290046000825580601f106117475750611766565b601f0160209004906000526020600020908101906117659190611884565b5b50565b828054600181600116156101000203166002900490600052602060002090601f016020900481019282601f106117a257805485556117df565b828001600101855582156117df57600052602060002091601f016020900482015b828111156117de5782548255916001019190600101906117c3565b5b5090506117ec9190611884565b5090565b828054600181600116156101000203166002900490600052602060002090601f016020900481019282601f1061183157805160ff191683800117855561185f565b8280016001018555821561185f579182015b8281111561185e578251825591602001919060010190611843565b5b50905061186c9190611884565b5090565b602060405190810160405280600081525090565b6118a691905b808211156118a257600081600090555060010161188a565b5090565b905600a165627a7a723058204b57b30bdf745abf11ae8ed03f2dee379abeee4a86f218b4ff8181bf3473d7fe0029",
  "source": "pragma solidity ^0.4.22;\n\ncontract DiamondTracker2 {\n\n    struct Diamond {\n        bytes32 id;\n        string origin;\n        DiamondType d_type;\n        DiamondProperties properties;\n    }\n\n    struct DiamondProperties {\n        uint size;\n    }\n\n    enum DiamondType { Synthetic, Natural }\n    address[] public certificate_authorities;\n    // mapping(bytes32 => address) owners;\n    //the mapping between each owner (address) and the diamons possessed\n    mapping (address => Diamond[]) public owners;\n    Diamond[] diamondsList;\n\n    event diamondSold();\n\n    constructor(address[] _certificate_authorities) public {\n        certificate_authorities = _certificate_authorities;\n    }\n\n    function register(address _owner, uint _type, string _origin, uint _size) external returns (bytes32) {\n        require(isCA(msg.sender), \"You are not allowed to call register()\");\n        require(_type == 1 || _type == 2, \"Type must be 1(Synthetic) or 2(Natural)\"); //Type 1 = Synthetic, Type 2 = Natural\n\n        Diamond memory d;\n        if(_type == 1) {\n            d.d_type = DiamondType.Synthetic;\n        } else if (_type == 2) {\n            d.d_type = DiamondType.Natural;\n        }\n        d.origin = _origin;\n        d.properties.size = _size;\n        //creation of the unique ID\n        d.id = sha256(abi.encodePacked(_size, _type));\n\n        if(!addDiamond(d, _owner))\n        revert(\"Diamond already exists\");\n\n        return d.id;\n    }\n\n    function sellDiamond(bytes32 ID, address newOwner) {\n        Diamond sellingDiamond;\n        sellingDiamond.id = ID;\n        require(isOwner(msg.sender, sellingDiamond), \"You are not the owner of the specified diamond\");\n\n        Diamond[] ownedDiamonds = owners[msg.sender];\n        for(uint i = 0; i < ownedDiamonds.length; i++) {\n            if(owners[msg.sender][i].id == sellingDiamond.id){\n                delete owners[msg.sender][i];\n            }\n        }\n\n        for(uint j = 0; j < diamondsList.length; j++) {\n            if (diamondsList[j].id == sellingDiamond.id){\n                owners[newOwner].push(diamondsList[j]);\n            }\n        }\n\n        emit diamondSold();\n\n    }\n\n\n    function getDiamondByIndex(uint index) external view returns (bytes32, string, DiamondType, uint) {\n        return (\n        diamondsList[index].id,\n        diamondsList[index].origin,\n        diamondsList[index].d_type,\n        diamondsList[index].properties.size\n        );\n    }\n\n    function getDiamondByDiamonId(bytes32 id) external view returns (bytes32, string, DiamondType, uint) {\n        for(uint i = 0; i < diamondsList.length; i++) {\n            if(diamondsList[i].id == id){\n                return (\n                  diamondsList[i].id,\n                  diamondsList[i].origin,\n                  diamondsList[i].d_type,\n                  diamondsList[i].properties.size\n                );\n            }\n        }\n    }\n\n    function getNumberOfDiamonds() external view returns (uint) {\n        return diamondsList.length;\n    }\n\n    function equals(Diamond d1, Diamond d2) internal pure returns (bool) {\n        return keccak256(encodeDiamond(d1)) == keccak256(encodeDiamond(d2));\n    }\n\n    function addDiamond(Diamond d, address owner) private returns (bool) {\n        for(uint i = 0; i < diamondsList.length; i++) {\n            if(equals(d, diamondsList[i]))\n              return false;\n        }\n\n      // NOTE: we expect that if diamond is already in diamondsList then it has a owner\n        diamondsList.push(d);\n        owners[owner].push(d);\n        return true;\n    }\n\n    function isCA(address user) private view returns (bool) {\n        for(uint i = 0; i < certificate_authorities.length; i++) {\n            if(certificate_authorities[i] == user)\n              return true;\n        }\n        return false;\n    }\n\n    function isOwner(address user, Diamond sellingDiamond) private view returns (bool) {\n        Diamond[] ownedDiamonds = owners[user];\n        for(uint i = 0; i < ownedDiamonds.length; i++) {\n            if(ownedDiamonds[i].id == sellingDiamond.id){\n                return true;\n            }\n        }\n        return false;\n    }\n\n    function encodeDiamond(Diamond d) private pure returns (bytes) {\n        return abi.encodePacked(\n          d.id,\n          d.origin,\n          d.d_type,\n          d.properties.size\n        );\n    }\n}\n",
  "sourcePath": "/Users/giovanni/Documents/SdM_Assignment/solidity-experiments/contracts/Diamond2.sol",
  "compiler": {
    "name": "solc",
    "version": "0.4.24+commit.e67f0147.Emscripten.clang"
  },
  "schemaVersion": "2.0.1",
  "updatedAt": "2018-11-06T10:24:47.003Z"
}