{
  "contractName": "Escrow",
  "abi": [
    {
      "inputs": [
        {
          "name": "_agent",
          "type": "address"
        },
        {
          "name": "_seller",
          "type": "address"
        }
      ],
      "payable": false,
      "stateMutability": "nonpayable",
      "type": "constructor"
    },
    {
      "constant": false,
      "inputs": [],
      "name": "release",
      "outputs": [],
      "payable": false,
      "stateMutability": "nonpayable",
      "type": "function"
    },
    {
      "constant": false,
      "inputs": [],
      "name": "cancel",
      "outputs": [],
      "payable": false,
      "stateMutability": "nonpayable",
      "type": "function"
    }
  ],
  "bytecode": "0x608060405234801561001057600080fd5b506040516040806102e68339810180604052810190808051906020019092919080519060200190929190505050336000806101000a81548173ffffffffffffffffffffffffffffffffffffffff021916908373ffffffffffffffffffffffffffffffffffffffff16021790555081600260006101000a81548173ffffffffffffffffffffffffffffffffffffffff021916908373ffffffffffffffffffffffffffffffffffffffff16021790555080600160006101000a81548173ffffffffffffffffffffffffffffffffffffffff021916908373ffffffffffffffffffffffffffffffffffffffff16021790555050506101d6806101106000396000f30060806040526004361061004c576000357c0100000000000000000000000000000000000000000000000000000000900463ffffffff16806386d1a69f14610051578063ea8a1af014610068575b600080fd5b34801561005d57600080fd5b5061006661007f565b005b34801561007457600080fd5b5061007d610115565b005b600260009054906101000a900473ffffffffffffffffffffffffffffffffffffffff1673ffffffffffffffffffffffffffffffffffffffff163373ffffffffffffffffffffffffffffffffffffffff16141561011057600160009054906101000a900473ffffffffffffffffffffffffffffffffffffffff1673ffffffffffffffffffffffffffffffffffffffff16ff5b600080fd5b600260009054906101000a900473ffffffffffffffffffffffffffffffffffffffff1673ffffffffffffffffffffffffffffffffffffffff163373ffffffffffffffffffffffffffffffffffffffff1614156101a5576000809054906101000a900473ffffffffffffffffffffffffffffffffffffffff1673ffffffffffffffffffffffffffffffffffffffff16ff5b600080fd00a165627a7a7230582069b0c4601049465129e3537ea2439191998e32fab7c31db2762616a2cba750290029",
  "source": "contract Escrow { \n  address buyer;\n  address seller; \n  address agent; \n  \n  function Escrow(address _agent, address _seller) { \n    // In this simple example, the person sending money is the buyer and sets up the initial contract \n    buyer = msg.sender; \n    agent = _agent; \n    seller = _seller; \n  } \n\n  function release() { \n    if (msg.sender == agent) \n      suicide(seller); // Send all funds to seller \n    else throw; \n  } \n\n  function cancel() { \n    if (msg.sender == agent) \n      suicide(buyer); // Cancel escrow and return all funds to buyer    \n    else throw; \n  } \n}\n",
  "sourcePath": "/Users/giovanni/Documents/SdM_Assignment/solidity-experiments/contracts/escrow.sol",
  "compiler": {
    "name": "solc",
    "version": "0.4.24+commit.e67f0147.Emscripten.clang"
  },
  "schemaVersion": "2.0.1",
  "updatedAt": "2018-10-26T13:26:28.582Z"
}