{
  "contractName": "Purchase",
  "abi": [
    {
      "inputs": [],
      "payable": false,
      "stateMutability": "nonpayable",
      "type": "constructor"
    },
    {
      "constant": false,
      "inputs": [
        {
          "name": "id",
          "type": "uint256"
        },
        {
          "name": "owner",
          "type": "address"
        },
        {
          "name": "id2",
          "type": "uint256"
        },
        {
          "name": "color",
          "type": "string"
        }
      ],
      "name": "addDiamond",
      "outputs": [],
      "payable": false,
      "stateMutability": "nonpayable",
      "type": "function"
    },
    {
      "constant": false,
      "inputs": [
        {
          "name": "id",
          "type": "uint256"
        },
        {
          "name": "index",
          "type": "uint256"
        },
        {
          "name": "owner",
          "type": "address"
        }
      ],
      "name": "changeOwner",
      "outputs": [],
      "payable": false,
      "stateMutability": "nonpayable",
      "type": "function"
    }
  ],
  "bytecode": "0x608060405234801561001057600080fd5b5033600160006101000a81548173ffffffffffffffffffffffffffffffffffffffff021916908373ffffffffffffffffffffffffffffffffffffffff160217905550610430806100616000396000f30060806040526004361061004c576000357c0100000000000000000000000000000000000000000000000000000000900463ffffffff168063e63ba28214610051578063ee4cb20d146100a8575b600080fd5b34801561005d57600080fd5b506100a66004803603810190808035906020019092919080359060200190929190803573ffffffffffffffffffffffffffffffffffffffff169060200190929190505050610145565b005b3480156100b457600080fd5b5061014360048036038101908080359060200190929190803573ffffffffffffffffffffffffffffffffffffffff16906020019092919080359060200190929190803590602001908201803590602001908080601f0160208091040260200160405190810160405280939291908181526020018383808284378201915050505050509192919290505050610219565b005b600160009054906101000a900473ffffffffffffffffffffffffffffffffffffffff1673ffffffffffffffffffffffffffffffffffffffff163373ffffffffffffffffffffffffffffffffffffffff16141561020f5780600080858152602001908152602001600020838154811015156101bb57fe5b906000526020600020906003020160000160006101000a81548173ffffffffffffffffffffffffffffffffffffffff021916908373ffffffffffffffffffffffffffffffffffffffff160217905550610214565b600080fd5b505050565b600160009054906101000a900473ffffffffffffffffffffffffffffffffffffffff1673ffffffffffffffffffffffffffffffffffffffff163373ffffffffffffffffffffffffffffffffffffffff161415610354576000808581526020019081526020016000206060604051908101604052808573ffffffffffffffffffffffffffffffffffffffff168152602001848152602001838152509080600181540180825580915050906001820390600052602060002090600302016000909192909190915060008201518160000160006101000a81548173ffffffffffffffffffffffffffffffffffffffff021916908373ffffffffffffffffffffffffffffffffffffffff16021790555060208201518160010155604082015181600201908051906020019061034b92919061035f565b50505050610359565b600080fd5b50505050565b828054600181600116156101000203166002900490600052602060002090601f016020900481019282601f106103a057805160ff19168380011785556103ce565b828001600101855582156103ce579182015b828111156103cd5782518255916020019190600101906103b2565b5b5090506103db91906103df565b5090565b61040191905b808211156103fd5760008160009055506001016103e5565b5090565b905600a165627a7a72305820282fa6de87de27b9f9601f739ebfa8600145c75e1b08be3e4647c16d9544f9a50029",
  "source": "pragma solidity ^0.4.22;\n\ncontract Purchase {\n    //diamond struct\n    struct Diamond {\n        address owner;\n        uint id;\n        string color;\n    }\n\n    //mapping diamonds\n    mapping (uint => Diamond[]) diamonds;\n    //uint[] public diamondList;\n\n    address merchant;\n\n\n    function Purchase() {\n        merchant = msg.sender;\n    }\n\n    function addDiamond(uint id, address owner, uint id2, string color) public {\n        //var diamond = diamonds[_uint];\n\n        //diamond.address = _age;\n        //diamond.id = id;\n        //diamond.color = color;\n    if (msg.sender == merchant)\n        diamonds[id].push(Diamond(owner, id2, color));\n    else throw;\n\n    }\n\n    // function getDiamonds() view public returns (uint[]) {\n    //     return diamonds;\n    // }\n    //\n    // function countDiamonds() view public returns (uint) {\n    //     return diamonds.length;\n    // }\n\n    /*\n    function changeOwner(Diamond diamond, address owner) {\n        if (msg.sender == merchant)\n            diamond.owner = owner;\n        else throw;\n    }\n    */\n\n    function changeOwner(uint id, uint index, address owner) public {\n        if (msg.sender == merchant)\n            diamonds[id][index].owner = owner;\n        else throw;\n    }\n}\n",
  "sourcePath": "/Users/giovanni/Documents/SdM_Assignment/solidity-experiments/contracts/Test.sol",
  "compiler": {
    "name": "solc",
    "version": "0.4.24+commit.e67f0147.Emscripten.clang"
  },
  "schemaVersion": "2.0.1",
  "updatedAt": "2018-10-26T15:31:19.251Z"
}