{
  "contractName": "Purchase",
  "abi": [
    {
      "constant": false,
      "inputs": [],
      "name": "release",
      "outputs": [],
      "payable": false,
      "stateMutability": "nonpayable",
      "type": "function"
    },
    {
      "constant": false,
      "inputs": [],
      "name": "cancel",
      "outputs": [],
      "payable": false,
      "stateMutability": "nonpayable",
      "type": "function"
    },
    {
      "constant": false,
      "inputs": [
        {
          "name": "id",
          "type": "uint256"
        },
        {
          "name": "owner",
          "type": "address"
        },
        {
          "name": "id2",
          "type": "uint256"
        },
        {
          "name": "color",
          "type": "string"
        }
      ],
      "name": "addDiamond",
      "outputs": [],
      "payable": false,
      "stateMutability": "nonpayable",
      "type": "function"
    },
    {
      "constant": false,
      "inputs": [
        {
          "name": "id",
          "type": "uint256"
        },
        {
          "name": "index",
          "type": "uint256"
        },
        {
          "name": "owner",
          "type": "address"
        }
      ],
      "name": "changeOwner",
      "outputs": [],
      "payable": false,
      "stateMutability": "nonpayable",
      "type": "function"
    }
  ],
  "bytecode": "0x608060405234801561001057600080fd5b506105a0806100206000396000f300608060405260043610610062576000357c0100000000000000000000000000000000000000000000000000000000900463ffffffff16806386d1a69f14610067578063e63ba2821461007e578063ea8a1af0146100d5578063ee4cb20d146100ec575b600080fd5b34801561007357600080fd5b5061007c610189565b005b34801561008a57600080fd5b506100d36004803603810190808035906020019092919080359060200190929190803573ffffffffffffffffffffffffffffffffffffffff16906020019092919050505061021f565b005b3480156100e157600080fd5b506100ea6102f3565b005b3480156100f857600080fd5b5061018760048036038101908080359060200190929190803573ffffffffffffffffffffffffffffffffffffffff16906020019092919080359060200190929190803590602001908201803590602001908080601f0160208091040260200160405190810160405280939291908181526020018383808284378201915050505050509192919290505050610389565b005b600460009054906101000a900473ffffffffffffffffffffffffffffffffffffffff1673ffffffffffffffffffffffffffffffffffffffff163373ffffffffffffffffffffffffffffffffffffffff16141561021a57600360009054906101000a900473ffffffffffffffffffffffffffffffffffffffff1673ffffffffffffffffffffffffffffffffffffffff16ff5b600080fd5b600160009054906101000a900473ffffffffffffffffffffffffffffffffffffffff1673ffffffffffffffffffffffffffffffffffffffff163373ffffffffffffffffffffffffffffffffffffffff1614156102e957806000808581526020019081526020016000208381548110151561029557fe5b906000526020600020906003020160000160006101000a81548173ffffffffffffffffffffffffffffffffffffffff021916908373ffffffffffffffffffffffffffffffffffffffff1602179055506102ee565b600080fd5b505050565b600460009054906101000a900473ffffffffffffffffffffffffffffffffffffffff1673ffffffffffffffffffffffffffffffffffffffff163373ffffffffffffffffffffffffffffffffffffffff16141561038457600260009054906101000a900473ffffffffffffffffffffffffffffffffffffffff1673ffffffffffffffffffffffffffffffffffffffff16ff5b600080fd5b600160009054906101000a900473ffffffffffffffffffffffffffffffffffffffff1673ffffffffffffffffffffffffffffffffffffffff163373ffffffffffffffffffffffffffffffffffffffff1614156104c4576000808581526020019081526020016000206060604051908101604052808573ffffffffffffffffffffffffffffffffffffffff168152602001848152602001838152509080600181540180825580915050906001820390600052602060002090600302016000909192909190915060008201518160000160006101000a81548173ffffffffffffffffffffffffffffffffffffffff021916908373ffffffffffffffffffffffffffffffffffffffff1602179055506020820151816001015560408201518160020190805190602001906104bb9291906104cf565b505050506104c9565b600080fd5b50505050565b828054600181600116156101000203166002900490600052602060002090601f016020900481019282601f1061051057805160ff191683800117855561053e565b8280016001018555821561053e579182015b8281111561053d578251825591602001919060010190610522565b5b50905061054b919061054f565b5090565b61057191905b8082111561056d576000816000905550600101610555565b5090565b905600a165627a7a7230582080efb80c9bdb5359849a42ef81b7ece10de0d56fd73fd692f08435f1dd80e6630029",
  "source": "pragma solidity ^0.4.24;\n\ncontract Purchase {\n    //diamond struct\n    struct Diamond {\n        address owner;\n        uint id;\n        string color;\n    }\n\n    //mapping diamonds\n    mapping (uint => Diamond[]) diamonds;\n    //uint[] public diamondList;\n\n    address merchant;\n    address buyer;\n    address seller;\n    address agent;\n\n    // function Purchase();\n\n\n    // function Purchase(address _agent, address _seller, address _buyer) {\n    //     merchant = msg.sender;\n    //     agent = _agent;\n    //     buyer = _buyer;\n    //     seller = _seller;\n    // }\n\n    function release() public{\n        if (msg.sender == agent)\n            suicide(seller); // Send all funds to seller\n            //call change ownership\n        else throw;\n    }\n\n    function cancel() public {\n        if (msg.sender == agent)\n            suicide(buyer); // Cancel escrow and return all funds to buyer\n            //no need to call change ownership\n        else throw;\n    }\n\n    function addDiamond(uint id, address owner, uint id2, string color) public {\n        //var diamond = diamonds[_uint];\n\n        //diamond.address = _age;\n        //diamond.id = id;\n        //diamond.color = color;\n    if (msg.sender == merchant)\n        diamonds[id].push(Diamond(owner, id2, color));\n    else throw;\n    }\n\n\n    // function getDiamonds() view public returns (uint[]) {\n    //     return diamonds;\n    // }\n    //\n    // function countDiamonds() view public returns (uint) {\n    //     return diamonds.length;\n    // }\n\n    /*\n    function changeOwner(Diamond diamond, address owner) {\n        if (msg.sender == merchant)\n            diamond.owner = owner;\n        else throw;\n    }\n\n    */\n    function changeOwner(uint id, uint index, address owner) public {\n        if (msg.sender == merchant)\n            diamonds[id][index].owner = owner;\n        else throw;\n    }\n}\n",
  "sourcePath": "/Users/giovanni/Documents/SdM_Assignment/solidity-experiments/contracts/purchase.sol",
  "compiler": {
    "name": "solc",
    "version": "0.4.24+commit.e67f0147.Emscripten.clang"
  },
  "schemaVersion": "2.0.1",
  "updatedAt": "2018-10-29T16:27:07.385Z"
}